:020000040800F2
:10000000005000209D020008A1020008A302000881
:10001000B9020008BB020008D1020008000000007D
:10002000000000000000000000000000E7020008DF
:10003000E902000800000000EB020008691F000848
:100040000103000801030008010300080103000880
:100050000103000801030008010300080103000870
:1000600001030008B51D0008010300080103000892
:100070000103000801030008010300080103000850
:1000800001030008B9230008010300080103000868
:100090000103000801030008010300080103000830
:1000A0000103000801030008010300080103000820
:1000B000A9200008F91F0008010300080103000837
:1000C0000103000801030008010300080103000800
:1000D00001030008D523000869240008CD24000886
:1000E00001030008010300080103000801030008E0
:1000F00001030008010300080103000801030008D0
:1001000001030008010300080103000801030008BF
:1001100001030008010300080103000801030008AF
:10012000010300080103000801030008010300089F
:1001300000000000000000000000000000000000BF
:1001400000000000000000000000000000000000AF
:10015000000000000000000000000000000000009F
:10016000000000000000000000000000000000008F
:10017000000000000000000000000000000000007F
:10018000000000000000000000000000000000006F
:10019000000000000000000000000000000000005F
:1001A000000000000000000000000000000000004F
:1001B000000000000000000000000000000000003F
:1001C000000000000000000000000000000000002F
:1001D000000000000000000000000000000000001F
:1001E0005FF8E0F107B500F001FE214A214B2249FA
:1001F0008B4226D30021214B214A934226D300F083
:1002000001FE01A9684600F0E9FD00251D4E1E4CC7
:10021000A41BA410AC421CDC00251C4E1C4CA41BCF
:10022000A410AC421ADC9DE8030001F0C3FB0646B3
:10023000184D194C641BA410002C14DC304600F03F
:10024000ABFD52F8040F43F8040BD1E743F8041B4D
:10025000D3E756F8253098470135DBE756F82530C7
:1002600098470135DDE7013C55F824309847E3E72E
:10027000503D000800000020000200200002002085
:10028000544500202C0300082C0300082C03000810
:100290002C0300082C0300082C0300081448004716
:1002A000FEE71EF0040F0CBFEFF30880EFF30980A8
:1002B0007146104A1047FEE7FEE71EF0040F0CBF20
:1002C000EFF30880EFF3098071460B4A1047FEE711
:1002D0001EF0040F0CBFEFF30880EFF309807146A6
:1002E000064A1047FEE7FEE7FEE7FEE7704700001C
:1002F000E5010008B7020008CF020008E502000887
:02030000FEE716
:10030400543D00080000002000020020543D000875
:1003140000000000000000000002002054450020FE
:080324000000000000000000D1
:10032C0040F0BF60024B40F40030D860704700BF13
:10033C0000ED00E010B5C2780378E2B1124AD16842
:10034C004278C943C1F30221C1F10404A2400F2435
:10035C00807824FA01F101400A430C491201C818B3
:10036C00D2B280F8002303F01F005A090123834006
:10037C0041F8223010BD01215A0903F01F0301FA84
:10038C0003F320320149F3E700ED00E000E100E067
:10039C00036823F001031B041B0C036000230360A0
:1003AC0043608360C360294B984204D1284A536848
:1003BC0043F00F0326E0274B984204D1244A53689C
:1003CC0043F0F0031EE0244B984204D1204A5368BA
:1003DC0043F4706316E0214B984204D11C4A5368D5
:1003EC0043F470430EE01E4B984204D1184A5368F4
:1003FC0043F4702306E01B4B984205D1144A536812
:10040C0043F4700353607047174B984204D1104A61
:10041C00536843F07063F5E7144B984201D1144ACA
:10042C00C5E7144B984201D1114AC8E7124B9842C8
:10043C0001D10F4ACBE7114B984201D10C4ACEE7C0
:10044C000F4B9842DFD10A4AD1E700BF08000240A7
:10045C00000002401C0002403000024044000240F8
:10046C00580002406C000240800002400804024028
:10047C00000402401C0402403004024044040240C8
:10048C00580402408B6810B50C6A026823430C694F
:10049C0022F4FF4223434C6922F0700223438C69FF
:1004AC002343CC6923434C6A23438C6A2343134371
:1004BC000360CB6843600B6883604B68C36010BDFE
:1004CC00036819B143F001030360704723F0010383
:1004DC001B041B0CF8E70000C3004CBF014B024B84
:1004EC00586070470004024000000240054B1A6837
:1004FC005B69034004D0024214BF01200020704706
:10050C001846704700040140014B5861704700BF0A
:10051C0000040140034A136803F0380318431060C9
:10052C00704700BF00200240044B1A6822F01002F2
:10053C001A601A6810431860704700BF0020024010
:10054C00034B044A5A6002F188325A60704700BF6C
:10055C000020024023016745FFF7F2BF024A1369EE
:10056C0043F080031361704700200240FFF7F6BF91
:10057C00084BDA68D10709D4DA68520708D4DB686B
:10058C0013F0100F14BF0320042070470120704794
:10059C00022070470020024010B50446FFF7E8FF28
:1005AC00012806D10CB9052010BDFFF7E1FF013C75
:1005BC00F6E7002C08BF052010BD000070B50546FD
:1005CC004FF400500E46FFF7E7FF04280FD1084CFC
:1005DC004FF40050236943F0010323612E80FFF791
:1005EC00DBFF236923F00103DB04DB0C236170BD0B
:1005FC000020024038B505464FF43020FFF7CCFF01
:10060C00042813D10A4C4FF43020236943F0020321
:10061C0023616561236943F040032361FFF7BCFF4D
:10062C00236923F00203DB04DB0C236138BD00BF1C
:10063C0000200240CB782DE9F041DA0648BF8A78D9
:10064C000E8803F00F0548BF154316F0FF0F1AD0A4
:10065C0000214FF0010E4FF00F0C02680EFA01F75B
:10066C0037EA06040BD18C000CFA04F822EA0802D3
:10067C0005FA04F4282B42EA040225D14761013122
:10068C000829EBD10260FF2E1CD900214FF0010E7E
:10069C004FF00F0C426801F108040EFA04F434EA2E
:1006AC0006070BD18F000CFA07F822EA080205FAAC
:1006BC0007F7282B42EA07020AD1446101310829C5
:1006CC00E9D14260BDE8F081482B08BF0761D6E74D
:1006DC00482B08BF0461F1E7016170474161704725
:1006EC00014B1860704700BF00300040014B586050
:1006FC00704700BF00300040014B9860704700BF4E
:10070C00003000404AF6AA22014B1A60704700BF25
:10071C00003000404CF6CC42014B1A60704700BFD1
:10072C00003000400D4B1A6842F001021A60596803
:10073C000B4A0A405A601A6822F0847222F4803202
:10074C001A601A6822F480221A605A6822F4FE0297
:10075C005A604FF41F029A60704700BF00100240AD
:10076C000000FFF80C4BB0F5803F1A6822F4803281
:10077C001A601A6822F480221A6003D0B0F5802F18
:10078C0005D070471A6842F480321A6070471A68B4
:10079C0042F4A022F9E700BF00100240034A53685C
:1007AC0023F47C131943014351607047001002403D
:1007BC00014B1860704700BF60004242034A536807
:1007CC0023F0030318435060704700BF0010024031
:1007DC00024B586800F00C00704700BF001002403C
:1007EC00034A536823F0F00318435060704700BF6E
:1007FC0000100240034A536823F4E063184350602E
:10080C00704700BF00100240034A536823F4605342
:10081C0043EAC00050607047001002401C4A10B5FB
:10082C00536803F00C03042B01D0082B1FD0194B79
:10083C0003605368184CC3F30313E15C0368CB40AB
:10084C0043605168C1F30221615C23FA01F18160BC
:10085C005168C1F3C221615CCB40C36052680F493F
:10086C00C2F381328A5CB3FBF2F3036110BD5368AF
:10087C005168C3F38343CC0303F1020302D4084948
:10088C004B43D5E751688903F9D40249F8E700BF17
:10089C000010024000127A0004000020000000202A
:1008AC0000093D00044B5A6911B11043586170475F
:1008BC0022EA0000FAE700BF00100240044B9A69DC
:1008CC0011B110439861704722EA0000FAE700BFAB
:1008DC0000100240044BDA6911B11043D861704723
:1008EC0022EA0000FAE700BF00100240044BDA686D
:1008FC0011B11043D860704722EA0000FAE700BF3C
:10090C0000100240044B1A6911B110431861704772
:10091C0022EA0000FAE700BF001002404209012A57
:10092C00074B07D11B6800F01F0023FA00F000F002
:10093C0001007047022A0CBF1B6A5B6AF3E700BF19
:10094C0000100240002307B501933120FFF7E6FFAA
:10095C00019B01330193019BB3F5A06F01D00028DB
:10096C00F3D03120FFF7DAFF003018BF012003B0BD
:10097C005DF804FB08B5614B98420BD101214FF493
:10098C000060FFF7B3FF00214FF40060BDE80840A2
:10099C00FFF7ACBFB0F1804F09D101210846FFF73A
:1009AC00B1FF00210120BDE80840FFF7ABBF544B5D
:1009BC00984206D101210220FFF7A4FF002102205A
:1009CC00F1E7504B984206D101210420FFF79AFF22
:1009DC0000210420E7E74C4B984206D10121082066
:1009EC00FFF790FF00210820DDE7484B984206D125
:1009FC0001211020FFF786FF00211020D3E7444B84
:100A0C00984206D101212020FFF77CFF00212020F5
:100A1C00C9E7404B984208D101214FF40050FFF731
:100A2C0065FF00214FF40050B0E73B4B984208D1D2
:100A3C0001214FF40020FFF759FF00214FF4002053
:100A4C00A4E7364B984208D101214FF48010FFF7F0
:100A5C004DFF00214FF4801098E7314B984208D19C
:100A6C0001214FF40010FFF741FF00214FF400105B
:100A7C008CE72C4B984206D101214020FFF742FF16
:100A8C00002140208FE7284B984206D1012180207D
:100A9C00FFF738FF0021802085E7244B984208D1CE
:100AAC0001214FF48070FFF72DFF00214FF480706F
:100ABC0079E71F4B984208D101214FF48030FFF7A2
:100ACC0015FF00214FF4803060E71A4B984208D193
:100ADC0001214FF40030FFF709FF00214FF40030E3
:100AEC0054E7154B984208D101214FF48020FFF7B1
:100AFC00FDFE00214FF4802048E708BD002C01408A
:100B0C000004004000080040000C004000100040B1
:100B1C000014004000340140004C014000500140E2
:100B2C000054014000180040001C00400020004010
:100B3C00004001400044014000480140224A038823
:100B4C0090429BB212D002F5006290420ED0B0F1EE
:100B5C00804F0BD0A2F59832904207D002F58062FC
:100B6C00904203D002F58062904203D14A8823F070
:100B7C0070031343154A904208D002F580629042EC
:100B8C001FBF23F44073CA889BB2134303808B8826
:100B9C0083850B8803850C4B98420FD003F50063BB
:100BAC0098420BD003F54063984207D003F580635D
:100BBC00984203D003F58063984201D10B7A0386E7
:100BCC0001238382704700BF002C014000100040BD
:100BDC00038821B19BB243F001030380704723F0DB
:100BEC0001031B041B0CF8E783899BB212B1194358
:100BFC008181704723EA0101FAE7FFF7F5BF038A09
:100C0C00828911EA030092B203D0114214BF012071
:100C1C0000207047C94389B20182704730B50D4638
:100C2C000446038A8A899BB2C98823F440530B4338
:100C3C0003828389A98823F4B05323F00C031B048B
:100C4C001B0C0B43298987B00B4369890B439BB25F
:100C5C008381838A9BB223F440731343838201A85C
:100C6C00FFF7DCFD174A039B0499944218BF194601
:100C7C001922A3894A4313F4004F2B684FF06405E3
:100C8C0014BF5B009B00B2FBF3F1B1FBF5F3A2893F
:100C9C001801120405FB13130BD5DA003232B2FB28
:100CAC00F5F202F0070242EA00039BB2238107B07F
:100CBC0030BD1B013233B3FBF5F303F00F030343D9
:100CCC00F3E700BF00380140838921B19BB243F4A4
:100CDC0000538381704723F400531B041B0CF8E76B
:100CEC0001F01F0310B5C1F342140121012C01FACC
:100CFC0003F105D10C3003683AB11943016010BD02
:100D0C00022C0CBF10301430F5E723EA0101F5E793
:100D1C00838A9BB212B119438182704723EA010185
:100D2C00FAE7C1F30801818070478088C0F308009E
:100D3C0070470388194214BF01200020704701231B
:100D4C00C1F3421210B5012A01F01F0403FA04F397
:100D5C000ED1828992B21340028892B26BB10123F8
:100D6C00090A03FA01F10A4214BF1846002010BD0B
:100D7C00022A0CBF028A828AECE7184610BD0B0AC5
:100D8C0001219940C94389B20180704708B500F030
:100D9C0035F800000B4A08B51168034609B90A4931
:100DAC0011601068033323F00303084903448B429A
:100DBC0006D901F0DBFB0C2303604FF0FF3008BDBC
:100DCC00136008BD0002002054450020004C002098
:100DDC0001230360014B0B60704700BF140000201F
:100DEC0008B500F01DF8024B024A9A6008BD00BF1E
:100DFC0000ED00E00000000800F08AB8BFF34F8F50
:100E0C000549064BCA6802F4E0621343CB60BFF39A
:100E1C004F8F00BFFDE700BF00ED00E00400FA05B6
:100E2C00374B82B01A6842F001021A605968354A91
:100E3C000A405A601A6822F0847222F480321A60D6
:100E4C001A6822F480221A605A6822F4FE025A6050
:100E5C004FF41F029A600022009201921A6842F429
:100E6C0080321A601A6802F400320192009A013240
:100E7C000092019A1AB9009AB2F5A06FF2D11A68D1
:100E8C0012F4003218BF01220192019A012A05D0F6
:100E9C004FF000621C4B9A6002B070471B4A1168FD
:100EAC0041F010011160116821F00301116011680B
:100EBC0041F0020111605A685A605A685A605A68C7
:100ECC0042F480625A605A6822F47C125A605A6862
:100EDC0042F4E8125A601A6842F080721A601A687A
:100EEC009201FCD55A6822F003025A605A6842F00B
:100EFC0002025A605A6802F00C02082AFAD1C7E7BB
:100F0C00001002400000FFF800ED00E0002002405D
:100F1C00114A124B516801F00C01042901D0082927
:100F2C000AD00F49196052680E49C2F30312895C4A
:100F3C001A68CA401A60704751685068C1F38341FF
:100F4C00C00301F1020102D407484143EAE75068AB
:100F5C008003F9D40248F8E7001002402C0000206E
:100F6C0000127A001C00002000093D0070B5882595
:100F7C000C46A6B006AE05AB009303AA04AB0196D3
:100F8C000C4901F039FB039A314605FB02F3E2549C
:100F9C00E018049B083020F8063C059B40F8043C04
:100FAC0001F056FB0122039B05FB03435A7026B04C
:100FBC0070BD00BF5A38000813B50C4601AA06498B
:100FCC0001F01AFB019909299FBF882303FB0141FA
:100FDC0000234B7002B010BD293900082DE9F041F7
:100FEC00882000F003FE0646114C124DDFF84880B5
:100FFC0031464422284600F001FF04F18807611CA9
:10100C00731E14F8010F13F8012F90420DD04422D7
:10101C00284600F00CFF05F5807545453C46E7D1A8
:10102C003046BDE8F04100F019BEBC42E9D1F2E710
:10103C007F28002000F0000800FA0008F8B5394BB2
:10104C001B780BB10020F8BD374801F009FB374C79
:10105C0005462288002AF5D03549334801F008FBB3
:10106C0048B134493048FFF781FFFFF7B7FF002341
:10107C0001202380F8BD30492B4801F0F9FA20B14A
:10108C002C492948FFF798FFEFE72C49264801F037
:10109C00EFFA10B100F0BCFBE9E72949224801F056
:1010AC00E7FA0028E3D127491F4801F0E1FA0028AC
:1010BC00DDD125491C4801F0DBFA0028D7D12349A2
:1010CC00194801F0D5FA0028D1D12149164801F070
:1010DC00CFFA0028CBD11F49134801F0C9FA20B12F
:1010EC004FF47A7000F0B4FBC1E71B490E4801F0D5
:1010FC00BFFA0028BBD1ADB26E08304600F076FDC9
:10110C00074602462946084800F004FE3246394696
:10111C00124801F031FA384600F0A0FD104B1E7059
:10112C00A5E700BF050200207E2400207C240020BF
:10113C008F380008802800209D380008A638000849
:10114C00B6380008C9380008DB380008EE3800084B
:10115C00FC3800080C3900081A3900083E0200203F
:10116C003F04002008B545F25550FFF7B9FA0620A8
:10117C00FFF7BCFA40F6FF70FFF7BEFABDE8084077
:10118C00FFF7C8BAFFF7BEBA0A460146014801F09C
:10119C00C7B800BF00480040CAB20146014801F080
:1011AC00D3B900BF004800402DE9F84F06464FF474
:1011BC008070894600F01AFD05467EB30024642039
:1011CC0000F0BAFEA3464FF06408DFF85CA030468E
:1011DC00BAF8007001F044FA874213D93946284610
:1011EC00FFF7DAFF05F807B03146284601F040FA60
:1011FC0040B10C4801F094F9284600F02FFD002076
:10120C00BDE8F88F01346420E4B200F095FE04FBD5
:10121C0008834B45DBD9284600F020FD0120BDE8B2
:10122C00F88F00BF004800406E24002070B50446C3
:10123C00094816460D4601F073F9204601F010FAE4
:10124C0081B22046FFF7A0FF31462846FFF7ACFFDE
:10125C00003018BF012070BD0048004037B5012197
:10126C000420FFF72BFB102340258DF807300123BA
:10127C000B4C01A920468DF80630ADF80450FFF751
:10128C00D9F929462046FFF729FA4FF47A6000F085
:10129C007DFD29462046FFF71FFA03B030BD00BF85
:1012AC000008014000B541F28832A3B035493648F8
:1012BC00FFF7BCFF00284BD0344B354A802102A8E5
:1012CC0001F066F940F6B8322E4902A8FFF7AEFFDE
:1012DC004FF4FA7000F030FE2E4B2F4A802102A8FA
:1012EC0001F056F940F6B832264902A8FFF79EFFE6
:1012FC004FF4FA7000F020FE284B294A802102A8F6
:10130C0001F046F940F6B8321E4902A8FFF78EFFED
:10131C004FF4FA7000F010FE224B234A0093802108
:10132C001E4B02A801F034F940F6B832154902A858
:10133C00FFF77CFF4FF4FA7000F0FEFD41F28832AB
:10134C0010491A48FFF772FF4FF4FA7000F0F4FDE1
:10135C0041F288320B491648FFF768FF4FF4FA70D8
:10136C0000F0EAFD42F2107212491348FFF75EFFDB
:10137C00124B20B100221A7023B05DF804FB01223D
:10138C00F9E700BF7B3A0008CA3A0008D53A0008D2
:10139C00DB3A0008ED3A00080A3B00080602002080
:1013AC001D3B00084C3B0008343B0008513B000837
:1013BC005F3B0008763B00087E3B000833020020B0
:1013CC00F7B5064600201F4C0090238801900A2B8D
:1013DC002CDD4FF4FA7000F0D9FC2488204600F084
:1013EC0005FC054660B32146FFF7D6FE1649284694
:1013FC0001F03EF9F8B109300DF1FF32074610F952
:10140C00013B2C2B14D1684601F0ACF8044690B18A
:10141C000246791C304601F0AFF80C4801F080F818
:10142C0000232846335500F019FCE0B203B0F0BDA0
:10143C0002F8013FE2E7284600F010FC0020F5E737
:10144C00FF20F3E76E240020593A000800480040C2
:10145C002DE9F84304461748154688461F4601F007
:10146C005FF8204601F0FCF881B22046FFF78CFEB5
:10147C0000246426DFF84090ADB2B9F80010A94200
:10148C0008D34046FFF788FE0A4801F049F80020CF
:10149C00BDE8F88301346420E4B200F04DFD04FB98
:1014AC000663BB42E9DD034801F03AF80120BDE8D0
:1014BC00F88300BF004800406E240020F8B50746B2
:1014CC007D2000F093FB0546114801F0C9F84FF45C
:1014DC00FA63C2B229460F48FFF7BAFF0446A8B90F
:1014EC000D49284601F0C4F8064660B10B4801F0DE
:1014FC00B7F83A460A49304401F07EF8284600F025
:10150C00ADFB2046F8BD284600F0A8FB0124F8E707
:10151C00BF390008DF390008EA390008F039000843
:10152C00FB390008F8B507467D2000F05FFB054647
:10153C00114801F095F842F21073C2B229460F48D7
:10154C00FFF786FF0446A8B90D49284601F090F82C
:10155C00064660B10B4801F083F83A460A4930441C
:10156C0001F04AF8284600F079FB2046F8BD2846E1
:10157C0000F074FB0124F8E78C390008A539000849
:10158C00AF390008B5390008FB39000838B5144CE0
:10159C00144D4FF47A7221462846FFF747FE20B1CE
:1015AC004FF47A7000F0C8FCF3E742F210720E4967
:1015BC000E48FFF73BFE42F210720B490C48FFF746
:1015CC0035FE42F2107208490A48FFF72FFE0A480E
:1015DC00FFF7A8FFBDE838400848FFF76FBF00BF12
:1015EC000F3A00081A3A00087B3A0008253A00081E
:1015FC002E3A00084A3A0008060200201A0200207F
:10160C0013B5302000F0F2FA0446104801F028F827
:10161C004FF47A73C2B221460D48FFF719FF90B907
:10162C000C49204601F024F850B101AA0A4900F0F7
:10163C00E3FF204600F012FB9DF8040002B010BD41
:10164C00204600F00BFB0120F8E700BF73390008BF
:10165C00253A00087E3900088439000813B530207B
:10166C0000F0C4FA0446104800F0FAFF4FF4FA6395
:10167C00C2B221460D48FFF7EBFE90B90C4920464B
:10168C0000F0F6FF50B101AA0A4900F0B5FF204660
:10169C0000F0E4FA9DF8040002B010BD204600F002
:1016AC00DDFA0120F8E700BF373900084639000899
:1016BC00563900086339000810B541F288321249D6
:1016CC001248FFF7B3FDC8B1FFF7C8FF044660B975
:1016DC0041F288320E490F48FFF7A8FD0E4A1378E5
:1016EC000133DBB2022B02D81370002010BD147032
:1016FC0001220A4B1C700A4B1A70F6E7064B0122AA
:10170C001870064BF8E700BF703A00087E3A0008E4
:10171C008C3A00087E3B0008340200203302002083
:10172C0035020020F7B51446074610480E4600F067
:10173C0097FF0A340444A4B2204600F057FA054639
:10174C0088B13346094A2146009700F021FF4FF437
:10175C00FA6207492846FFF769FD284600F07EFA31
:10176C00002003B0F0BD0120FBE700BF973A000852
:10177C007B3A00082DE9F041804621480F4600F0E5
:10178C006FFF00EB47050A35ADB2284600F02EFA84
:10179C000446781D400000F029FA064600B934B31F
:1017AC003A463146404600F0CBFA3346154A2946B4
:1017BC00204600F0EDFEFFF751FF28B941F28832C8
:1017CC0011491248FFF732FD204600F049FF012174
:1017DC0082B22046FFF7A6FF054640B9304600F01E
:1017EC003DFA204600F03AFA2846BDE8F081304632
:1017FC0000F034FA204600F031FA0125F4E700BF7E
:10180C00973A0008633A00088C3A00087E3B0008BF
:10181C0000B50D488FB000F023FF0F2802D80A48FE
:10182C00FFF74CFE084B094A322101A800F0B0FE2C
:10183C0001A800F015FF012182B201A8FFF772FF89
:10184C000FB05DF804FB00BF1A020020C03A00087C
:10185C0010B590B00446FFF7D3FE084A0346322178
:10186C00009403A800F094FE03A800F0F9FE0121F7
:10187C0082B203A8FFF756FF10B010BDAE3A0008B5
:10188C002DE9F04104464FF4006000F0AFF9064634
:10189C00B8B1FFF795FD1FFA80F80546B8F1000FB7
:1018AC000CD01B4F02463146384600F065FE194BF2
:1018BC00A3F8008000237B55FFF7C0FB304600F0F7
:1018CC00CDF9154D297859B11448FFF753FF012272
:1018DC00134B1870134B1A7000232B70BDE8F0815A
:1018EC003C22B4FBF2F302FB1343012B01D1FFF7B3
:1018FC00E3FE4FF41672B4FBF2F302FB1343012B1D
:10190C0004D12046BDE8F041FFF7A2BFBDE8F0814D
:10191C007E2400207C2400203C0200203F03002079
:10192C003D02002040040020024A1368013313607A
:10193C00704700BF3802002000F024B910B5FEF744
:10194C00F1FE4FF48030FEF70DFFFEF7FBFF012890
:10195C00044624D10020FEF743FF0020FEF754FF7D
:10196C004FF48060FEF746FF0220FEF7D3FD1020F7
:10197C00FEF7DAFD4FF480304FF4E011FEF70EFF66
:10198C002046FEF715FF3920FEF7C8FF0028FAD0D5
:10199C000220FEF713FFFEF71BFF0828FBD110BD3A
:1019AC004FF44070FEF7BCBC08B5FFF7C7FFFFF75C
:1019BC00F7FF00F0A5FA264800F08AFB254800F056
:1019CC0087FBFFF74BFC43F6982000F0DFF9FFF79D
:1019DC00DDFDFFF767FC00F0CBF81F4A0121322038
:1019EC0000F0BEFA00F0F4FA1C4A01214FF47A70B0
:1019FC0000F016FB00F04CFBFFF7B4FB184D194C34
:101A0C002868FFF73DFFFFF7BDFB2378012BF7D1CB
:101A1C0000232370FFF722FCFFF7B4FB41F2883060
:101A2C0000F0B4F9FFF7AEFB41F2883000F0AEF9EC
:101A3C00FFF714FCFFF7A6FB41F2883000F0A6F983
:101A4C00FFF7A0FBFFF7A2FDFFF72CFCD8E700BFC8
:101A5C0000380140004800404519000835190008BD
:101A6C003802002035020020F8B506790446012E14
:101A7C0002D0022E27D0F8BDC578471D043DEDB22B
:101A8C002A463946314800F077FD314B1D7005234D
:101A9C00E370032323712F4B1B7893B102236371E3
:101AAC000023621E12F8011F0B44BA42DBB2F9D1BB
:101ABC00A37107222146284800F032FC274B1D70E9
:101ACC00F8BD6671ECE7264D2A7802B3131DC3707E
:101ADC00052324490371184400F04EFD00231A46D7
:101AEC0029780431581CDBB299420BDAE2540023FA
:101AFC002A782B700632D2B22146BDE8F84016483F
:101B0C0000F00EBCE35C1A44D2B20346EAE70623AB
:101B1C00C3700423144903710B78012B14D10D48A5
:101B2C000A700078002818BF334663710F4BA01D54
:101B3C001B78A371631E13F8011F0A449842D2B29A
:101B4C00F9D1E2710822D7E74271EFE73F03002099
:101B5C00410400203D020020003801403C020020DE
:101B6C003F0400203E0200204004002033020020ED
:101B7C005A22034B1A70A5225A700A229A70704787
:101B8C00D02D002038B50C4C227882B100210B46A8
:101B9C000A4D013A88B2904201F1010108DB2A5C3E
:101BAC009A4202D10548FFF75FFF0023237038BD2E
:101BBC00285C0344DBB2EDE73E030020D02D00206F
:101BCC0003460244934200D1704703F8011BF9E726
:101BDC0008B5102200210348FFF7F2FF0122024B47
:101BEC001A7008BD432400204224002038B5174B3E
:101BFC0004461B780BB9FFF7EBFF64B1C4F3472322
:101C0C00C4F308040CB10133DBB200241049C3F156
:101C1C001000844201DB002038BD11F8012F1AB9E5
:101C2C009A4205DA8D5C0DB10134F2E70132F7E727
:101C3C00FAD10022074921449A4203D1064800EB0D
:101C4C00442038BD8B540132F6E700BF42240020FB
:101C5C0042240020432400204204002010B50C4BE9
:101C6C001B781BB9FFF7B4FF012010BD094BC01A3C
:101C7C00B0F5005FF8D200231C46074A400A115CFD
:101C8C0010448B4201DB002010BDC4540133F8E733
:101C9C00422400204204002043240020C3B2A3F1BC
:101CAC003000C0B209280FD9A3F16102052A03D86C
:101CBC00A3F15700C0B27047A3F14102052A02D824
:101CCC00A3F13700F6E70020704700F00F03092B53
:101CDC004FEA101094BF30333733092894BF30309B
:101CEC0037300B7010700020704710B5044600F0B0
:101CFC00B7FC01280CD994F90000FFF7CFFF0001C5
:101D0C00C1B294F90100FFF7C9FF0843C0B210BD7E
:101D1C00002010BDCB0770B50FD404464908561EE1
:101D2C0000EB4105AC4201D1002070BD2046FFF70D
:101D3C00DCFF023406F8010FF4E74FF0FF3070BD02
:101D4C002DE9F3410D4616460C46471E01EB4208A1
:101D5C00444505D1002005F8160002B0BDE8F0811D
:101D6C000DF107020DF1060117F8010FFFF7ADFF9A
:101D7C00023440B99DF8073004F8023C9DF8063057
:101D8C0004F8013CE4E74FF0FF30E6E770B5054698
:101D9C000024642601346420A4B200F0CDF806FBC4
:101DAC0004F3AB42F6D970BD10B50820FEF79EFBCC
:101DBC00D0B10E4C0820FEF7A7FB20460021FEF701
:101DCC007FFB62680A4BC2F5007292B209490A485D
:101DDC001A8000F0D1FB4FF40073204663600121A0
:101DEC00BDE81040FEF76CBB10BD00BF1C000240EC
:101DFC007C240020D02E00207E24002001EB420207
:101E0C00401A914200D17047435A21F8023BF8E73F
:101E1C0070B50C4601EB4205461AAC4206EB0400C9
:101E2C0000D170BD34F8021BFEF7C8FBF5E72DE9B5
:101E3C00F84F80464FF4006089461746FFF7D6FEF0
:101E4C000646002859D008F17845B5F5003F54D224
:101E5C00C5F3480ACAF50074A4B2BC4228BF3C467C
:101E6C004FF6FF7BFEF778FB25F47F7525F0030515
:101E7C0005F100654FF4007231462846FFF7BEFFAE
:101E8C00002306EB4A0A9AB2944203D822464946EA
:101E9C00404611E001330AEB430232F8022C5A455A
:101EAC00F1D02846FEF7A6FB00239AB2944217D82D
:101EBC004FF4007231462846FFF7AAFFA74205F5FA
:101ECC00806513D03F1BBFB2B7F5007F09EB440907
:101EDC00A0444FF0000A3C4628BF4FF40074C9E7F9
:101EEC0039F813202AF813200133DEE7FEF73EFB06
:101EFC003046BDE8F84FFFF7B1BEBDE8F88F0000E3
:101F0C004FF47A72094B1B68B3FBF2F3013BB3F14C
:101F1C00807F09D2F021064A5360064B83F82310C8
:101F2C000023936007231360704700BF2C00002030
:101F3C0010E000E000ED00E0024B18601A68002A87
:101F4C00FCD17047D0360020034B1A6812B11A68C6
:101F5C00013A1A60704700BFD0360020FFF7F4BF7B
:101F6C0030B5194D194B400085B084B228469A60A3
:101F7C005C605970FEF7FEFC01210220FEF7AAFC02
:101F8C0048F69F43ADF80840002401A92846ADF857
:101F9C000430ADF80640ADF80A40FEF7CFFD012243
:101FAC0028461146FEF729FE1D238DF800300D231F
:101FBC008DF80130012368468DF802408DF803300E
:101FCC00FEF7B8F905B030BD0004004054240020E1
:101FDC0010B5054C01212046FEF71CFE2046BDE83D
:101FEC0010400121FEF7F4BD0004004010B50121A2
:101FFC000948FEF704FE012807D1084C617811B995
:10200C000548FEF7E5FDA3689847BDE8104001219F
:10201C000148FEF7FFBD00BF00040040542400201F
:10202C001FB51A4B400084B24FF080409A605C6040
:10203C005970FEF79FFC01210846FEF74BFC48F651
:10204C009F43ADF80840002401A94FF08040ADF843
:10205C000430ADF80640ADF80A40FEF76FFD0122E2
:10206C004FF080401146FEF7C8FD1C238DF8003060
:10207C000C238DF80130012368468DF802408DF851
:10208C000330FEF757F904B010BD00BF60240020E8
:10209C0001214FF08040FEF79BBD000010B50121DF
:1020AC004FF08040FEF7ABFD012808D1074C61785A
:1020BC0019B94FF08040FEF78BFDA3689847BDE837
:1020CC00104001214FF08040FEF7A4BD6024002099
:1020DC0070B58B4B92B09842044656D1012144F214
:1020EC000D00FEF7EBFB01210846FEF7DBFB182386
:1020FC0003258DF807304FF4007301A98148ADF822
:10210C0004308DF80650FEF795FA04238DF807304D
:10211C004FF4806301A97B48ADF804308DF806506C
:10212C004FF48076FEF786FA102301A976488DF8D5
:10213C0007308DF80650ADF80460FEF77BFA314697
:10214C007148FEF7CBFA4FF4165303930C2300257A
:10215C000DEB03012046ADF81630ADF81850ADF874
:10216C001050ADF81250ADF81450FEF757FD252362
:10217C008DF80830092301228DF809308DF80A50AA
:10218C008DF80B2040F225516DE0604B984276D1D2
:10219C0001210846FEF786FB01210520FEF78EFB88
:1021AC0001214FF40030FEF795FB18238DF8073012
:1021BC00042303250DEB03015248ADF804308DF8D0
:1021CC000650FEF737FA48238DF80730082301A98B
:1021DC004C48ADF804308DF80650FEF72BFA4FF44E
:1021EC00165303930C2300250DEB03012046ADF889
:1021FC001630ADF81850ADF81050ADF81250ADF8CF
:10220C001450FEF70BFD4248FEF7C2F8414B07A9EC
:10221C000793414B3E4808934FF400730A93802375
:10222C000C9320230F934FF48053099510930B9527
:10223C000D950E951195FEF725F901213448FEF701
:10224C003FF9012240212046FEF762FD26230122A0
:10225C008DF808300A2340F224418DF809308DF8AE
:10226C000A508DF80B202046FEF73AFD02A8FEF727
:10227C0061F801212046FEF727FD12B070BD274BF7
:10228C009842F6D101210920FEF718FB01214FF4E9
:10229C008020FEF71FFB182303258DF807304FF421
:1022AC00806301A91848ADF804308DF80650FEF78C
:1022BC00C1F904238DF807304FF4006301A91248CB
:1022CC00ADF804308DF80650FEF7B4F94FF4E13355
:1022DC0003930C2300250DEB03012046ADF81630BB
:1022EC00ADF81850ADF81050ADF81250ADF81450C0
:1022FC00FEF794FC27238DF808300B233BE700BF37
:10230C000038014000080140000C0140004400402E
:10231C006C00024004440040D444002000480040BB
:10232C00F8B5204B054698420E4601F1FF3402F1F8
:10233C00FF3709D03E44B44228D140212846FEF74D
:10234C00F8FC0028F9D0F8BD4FF480711648FEF760
:10235C00C3F93E44B4420DD1124C40212046FEF745
:10236C00E8FC0028F9D04FF48071BDE8F8400E4825
:10237C00FEF7B4B980212846FEF7DBFC0028F9D023
:10238C0014F8011F2846FEF7CCFCE3E78021284611
:10239C00FEF7CFFC0028F9D014F8011F2846FEF7F1
:1023AC00C0FCC8E700380140000C014008B54FF0F4
:1023BC000070FEF791F8BDE8084000210148FEF7D7
:1023CC007FB800BF8000024070B540F225511E4816
:1023DC00FEF7B5FC002832D01C4C40F225511A48AF
:1023EC00FEF7CDFC23881848B3F5007F04BF00230B
:1023FC0023802588FEF799FC154B58551A785A2AD4
:10240C0002D00023238070BD2288013292B2022AAE
:10241C00228014D95978A5290ED199780A290BD183
:10242C00D97802318A420AD100210A4D481CC9B21E
:10243C00914205D308490A70002222801A7070BD9F
:10244C005E5C6E540146F1E7003801406C240020BC
:10245C00D43E0020D02D00203E03002070B540F269
:10246C0024411248FEF76BFCF0B1114C0F48FEF7FB
:10247C005CFC20460021FEF723F862680D4D0E4EE1
:10248C00C2F5007292B20D492846328000F074F801
:10249C00002233882046EA544FF400730121636014
:1024AC00BDE87040FEF70CB870BD00BF00440040A2
:1024BC006C0002407E2400207C240020D4440020A8
:1024CC0010B540F224411348FEF739FC044620B104
:1024DC00BDE810400F48FEF728BC40F225510D48CE
:1024EC00FEF72DFCA0B10C4B0A481A88B2F5006F10
:1024FC0008BF1C801C88621C1A80FEF716FC074B58
:10250C0040F225511855BDE810400248FEF737BC83
:10251C0010BD00BF004800406E240020D4360020BF
:10252C00064B10B5984207D1054C0021228805486E
:10253C00FFF746FB0023238010BD00BF004800407E
:10254C006E240020D43600200B460449884203D167
:10255C000349184600F010B8704700BF004800400F
:10256C00D43600200A22002100F030B9014B186843
:10257C00704700BF3000002010B5431E0A44914242
:10258C0000D110BD11F8014B03F8014FF7E7000023
:10259C000CB430B5174B0C1E9DB01D6808DA8B239C
:1025AC004FF0FF302B601DB0BDE8304002B07047DB
:1025BC004FF40273ADF814300CBF234604F1FF3313
:1025CC00049307934FF6FF7302900690ADF8163004
:1025DC00209A21AB02A92846019300F08DF9431CE7
:1025EC00BCBF8B232B60002CDDD00022029B1A7009
:1025FC00D9E700BF300000200EB44FF4017230B5A3
:10260C009CB01FAC54F8045BADF8142002900690FB
:10261C0000F026F80B4B03900B9300230F931493AD
:10262C004FF6FF7307900848ADF816302A4623463C
:10263C0002A90068019400F0ADFA1CB0BDE830406E
:10264C0003B0704759260008300000200020704766
:10265C00034611F8012B03F8012B002AF9D170471E
:10266C00034613F8012B002AFBD1181A01387047C6
:10267C00F0B5037833B1034618465E1C1B7833B9AA
:10268C001846F0BD0B78002B18BF0020F0BD4D1E76
:10269C00441E15F8012F002AF3D014F8017F33469D
:1026AC009742F6D0E8E72DE9F84F804689469246E6
:1026BC001F468B465D460A9815F8014B00F09CF8B6
:1026CC002044467816F008060BD12D2C0BD1012690
:1026DC002C780BF1020567B1102F14D1302C0AD0D5
:1026EC0011E0AB46E6E72B2C04BF2C780BF102056E
:1026FC00F1E7302C27D12B7803F0DF03582B4BD18B
:10270C0010276C780235002E0CBF6FF000414FF093
:10271C0000410022B1FBF7FE104607FB1E1CA4F182
:10272C003003092B11D81C46A7421DDD531C07D0C2
:10273C00864516D301D1A44513DB012200FB0740CB
:10274C0015F8014BEBE70A27DDE7A4F14103192B40
:10275C0001D8373CE8E7A4F16103192B04D8573CA6
:10276C00E2E74FF0FF32EBE7531C08D12223084677
:10277C00C8F80030BAF1000F07D1BDE8F88F06B1E8
:10278C004042BAF1000F0CD022B1013DCAF8005002
:10279C00BDE8F88F4D46F9E73024002FB3D1082758
:1027AC00B1E7BDE8F88F000037B5064C064D24683C
:1027BC00246A002C08BF2C460094FFF774FF03B06A
:1027CC0030BD00BF3000002094000020084B37B50E
:1027DC001C68084D236A002B08BF2B460093134638
:1027EC000A4601462046FFF75EFF03B030BD00BF2E
:1027FC003000002094000020D0F8EC00704700005E
:10280C00044B054A1B681B6A002B08BF1346D3F800
:10281C00EC007047300000209400002082B001B919
:10282C0001A942B14BB113780B601278101C18BF80
:10283C00012002B070471046FBE76FF00100F8E78B
:10284C002DE9F0478E6882469E420C46914698468A
:10285C0035D88A8912F4906F31D002232568096922
:10286C006F1A656905EB450595FBF3F508F1010356
:10287C003B449D4238BF1D46530531D5294600F0D7
:10288C0047FF064650B90C23CAF80030A3894FF015
:10289C00FF3043F04003A381BDE8F0873A4621693D
:1028AC00FFF76AFEA38923F4906343F08003A381AE
:1028BC0026613E44266046466561ED1BA560464593
:1028CC0028BF464649463246206800F0BBFEA36846
:1028DC0000209B1BA36023681E442660BDE8F08784
:1028EC002A4600F073FF06460028E1D121695046C4
:1028FC0000F0C2FEC7E700002DE9F04F9DB0039336
:10290C008B8980461C060D4616460FD50B696BB994
:10291C00402100F0FDFE2860286128B90C23C8F87E
:10292C0000304FF0FF30C4E040236B61002309936B
:10293C0020238DF8293030234FF0010B8DF82A30ED
:10294C0037463C4614F8013B002B3CD1B7EB060A4A
:10295C000BD05346324629464046FFF771FF0130F3
:10296C0000F0A280099B534409933B78002B00F0A4
:10297C009B8000234FF0FF3204930793059206933C
:10298C008DF853301A9305222178504800F04CFEF4
:10299C00671C049BD8B9D90644BF20228DF853205C
:1029AC001A0744BF2B228DF8532022782A2A16D0DE
:1029BC0000210A20079A27463B780134303B092B2B
:1029CC0050D9C9B111E0252BC0D02746B9E73F4AF1
:1029DC003C46801A0BFA00F018430490D3E7039A94
:1029EC00111D12680391002A01DB079204E0524288
:1029FC0043F00203079204933B782E2B0DD17B7886
:102A0C00791C2A2B32D1039B02371A1D1B680392A7
:102A1C00002BB8BF4FF0FF3305932D4C03223978B0
:102A2C00204600F001FE38B14023001B03FA00F0F1
:102A3C00049B0137034304933978062225487E1CF6
:102A4C008DF8281000F0F0FD002835D0224BFBB992
:102A5C00039B073323F0070308330393099B4B4471
:102A6C0009936DE700FB02320121A4E700230A243D
:102A7C00184605930F463A780131303A092A03D9A2
:102A8C00002BCAD00590C8E704FB00200123F1E716
:102A9C0003AB00932A46114B04A94046AFF30080C8
:102AAC00B0F1FF3F8146D9D1AB895B063FF539AF19
:102ABC0009981DB0BDE8F08F03AB00932A46074B75
:102ACC0004A9404600F032FAEAE700BF973B000841
:102ADC009D3B0008A13B0008000000004D280008A9
:102AEC0038B54B1C144603D14FF0FF35284638BD82
:102AFC009389CDB223F020039381536B52688BB131
:102B0C00A36B9A4208DA23685A1E226003F8015C10
:102B1C00636801336360E9E7214600F03FFD00285C
:102B2C00F1D0E1E72169236851B1994208D213F839
:102B3C00011C8D4204D1013B013223606260D5E758
:102B4C00E36304F1440363630323A3632346226416
:102B5C0003F8465F23600123DCE710B50C46496B94
:102B6C0069B104F14403994201D000F085FD0020C5
:102B7C00236C6063636013B1E36B236010BD236946
:102B8C004FF0FF30236000236360A38943F02003E0
:102B9C00A38110BD2DE9F04FADF5257D01930023E8
:102BAC0006460C4692460A27469347939F4B0DF1D7
:102BBC000C08A2939E4BDFF87C92CDF82081A39356
:102BCC009AF80030002B00F02F81FFF719FE9AF8CD
:102BDC0000B05844437813F0080343D1BBF1250FE0
:102BEC000AF1010540F09980459343939AF801301E
:102BFC002A2B03D110230AF1020543932978AA4604
:102C0C00A1F13002092A05F1010541D903228948B5
:102C1C0000F00AFD38B1A0EB09030120AA46984048
:102C2C00439B184343909AF800300AF10105672B37
:102C3C004AD8652B80F0B780472B2FD8452B80F0D6
:102C4C00B280002B00F08280252B66D003234497A2
:102C5C00499345E0479901330131479161682360FD
:102C6C00013961606368002B0BDDFFF7C9FD236838
:102C7C001978084441780D07ECD40AF10105AA46ED
:102C8C009EE7A39B2146304698470028EDD0F4E7F9
:102C9C00459B07FB0313303B4593AFE75B2B61D0A0
:102CAC000CD8582BD2D1439A42F400724392102282
:102CBC0044926F2BB4BF0323042310E0632B5CD02E
:102CCC00642BC3D14497F4E7702B42D01DD86E2BE4
:102CDC0059D043D8692BB9D100234493032349938A
:102CEC006368002B61DD439B59066FD5499B022B12
:102CFC007CDC01AB224643A9304600F037FA0128B0
:102D0C0000F092800228BAD11DE0752BDAD0782B16
:102D1C00C9D0732B9AD10223E1E76368002B0CDD39
:102D2C0023681A7893457FD1013362682360479BEF
:102D3C00013A013362604793A1E7A39B21463046D9
:102D4C0098470028ECD04698002863D14FF0FF300C
:102D5C0066E0439A42F020024392A4E7082344938E
:102D6C000423BCE72946404600F05AFB439B05462A
:102D7C0043F0400343930123B1E7439B43F04003EB
:102D8C0043930023ABE7439AD0063FF578AF12F09C
:102D9C00010F019A479B02F104010191126814BFC3
:102DAC00138013606BE7052399E7A39B21463046FC
:102DBC009847002897D0C6E7479A01324792626835
:102DCC00013A002A62600ADD01332360FFF718FD27
:102DDC0023681A78104442781207EDD486E7A39B37
:102DEC002146304698470028F0D0ACE7042B06DC8F
:102DFC0001AB224643A9304600F01CFA7FE70E4B8C
:102E0C00002B3FF43CAF01AB224643A93046AFF355
:102E1C00008074E7A38913F0400F18BF4FF0FF3008
:102E2C000DF5257DBDE8F08F4698F9E7ED2A0008F1
:102E3C00672B00089D3B0008000000002DE9F047BF
:102E4C0091461F468A680B6906469342B8BF1346E3
:102E5C00C9F8003091F843200C46DDF8208012B1FF
:102E6C000133C9F800302368990642BFD9F8003005
:102E7C000233C9F80030256815F0060507D104F1B6
:102E8C00190AE368D9F800209B1A9D422ADB94F8B2
:102E9C0043302268003318BF012392062FD404F16B
:102EAC00430239463046C047013022D02368E568DA
:102EBC0003F00603042B18BF0025D9F800204FF0AF
:102ECC00000908BFAD1AA368226908BF25EAE57599
:102EDC009342C4BF9B1AED181A344D451BD10020E8
:102EEC00BDE8F0870123524639463046C0470130D1
:102EFC0003D14FF0FF30BDE8F0870135C1E730203A
:102F0C00E11881F843005A1C94F84510224402330E
:102F1C0082F84310C3E70123224639463046C047A6
:102F2C000130E6D009F10109D7E700002DE9F043A3
:102F3C0017460A7E85B06E2A984606460C460C9BB0
:102F4C0001F1430E00F0BC801AD8632A2ED00AD8A7
:102F5C00002A00F0C880582A00F08A8004F142054B
:102F6C0084F842202AE0642A01D0692AF6D121682B
:102F7C001A6811F0800F23D0111D1960136827E017
:102F8C00732A00F0B48008D86F2A2AD0702AE5D1B1
:102F9C000A6842F020020A6003E0752A21D0782AE0
:102FAC00DCD178226F4984F8452064E01A6801F17D
:102FBC004205111D1960136884F842300123A3E007
:102FCC0011F0400F02F104011960D7D0B2F90030B2
:102FDC00002B03DA2D225B4284F8432062490A223B
:102FEC0017E02068196810F0800F03D0081D1860D6
:102FFC000B6806E010F0400F01F104001860F7D0E8
:10300C000B886F2A14BF0A2208225749002084F823
:10301C0043006568002DA560C0F29C80206820F0FC
:10302C0004002060002B3FD1002D40F095807546A8
:10303C00082A0BD12368DA0708D5236962689A42FB
:10304C00DEBF302305F8013C05F1FF35AEEB05037F
:10305C002361CDF800803B4603AA21463046FFF79A
:10306C00EDFE013055D14FF0FF3005B0BDE8F083D7
:10307C0081F845203C492268186812F0800F00F155
:10308C0004051D6001D0036802E05506FBD50388DA
:10309C00D00744BF42F0200222601BB9226822F004
:1030AC00200222601022B1E77546B3FBF2F002FB5E
:1030BC001033CB5C05F8013D03460028F5D1B7E78A
:1030CC0008681A6810F0800F496904D0101D186048
:1030DC001368196007E010F0400F02F1040018604B
:1030EC001368F6D01980002375462361B1E71A687E
:1030FC00111D1960156800216268284600F094FAC9
:10310C0008B1401B606063682361002384F843307E
:10311C009FE723692A4639463046C0470130A2D082
:10312C0023689B0707D5002504F11909E368039A66
:10313C009B1A9D4205DBE068039B9842B8BF18467A
:10314C0093E701234A4639463046C04701308AD0BE
:10315C000135EBE7002BA7D10B7804F1420584F87D
:10316C00423065E7B93B0008A83B00082DE9F04167
:10317C0015468A6880460C4632B98A69002A0CBF0B
:10318C0001224FF0FF328A6000262268D1065FBF11
:10319C001A68111D19601768A369DBB1012B07D1DF
:1031AC002B6862691B78D35CA3B9002E31D106E081
:1031BC00022B07D0002E2CD1A369012B29D1012081
:1031CC00BDE8F081FFF71CFB2B681B781844437893
:1031DC001B07EFD423680136DA065EBF2B681B7819
:1031EC003B702A686B6802F101022A60A26803F145
:1031FC00FF3302F1FF326B6058BF0137A26042B15E
:10320C00002BC9DCD4F88031294640469847002869
:10321C00C2D0236813F0100305D1E2680132E260DA
:10322C00A26902B13B70236900201E442661BDE8EF
:10323C00F08100002DE9F04F0C469A46744B87B094
:10324C008346164693E8070003ABA76883E807009C
:10325C00704BA169704A04F11C09032918BF1A4666
:10326C007B1EB3F5AE7F84BF40F25D13A360236871
:10327C0088BF6FF4AE7543F45063236098BF00278A
:10328C004B464FF00008009288BF7F1931680193BC
:10329C0003AB53F828000222097800F0C5F9019B12
:1032AC0028B3B8F1010F56D162682AB908226260BE
:1032BC00226842F400722260226822F4A06222602A
:1032CC00A268511EA16092B132685D1C511C316024
:1032DC0012781A707368013B002B736006DCD4F80B
:1032EC008031314658469847002877D12B4608F153
:1032FC000108B8F1030FC9D162680AB90A226260E9
:10330C00626846496069891A019300F089F8019B4B
:10331C004FF000081D46A368002B39D03168606956
:10332C000A78805C002833D0302A226821D110051D
:10333C001FD508F1010817B10133013FA360736871
:10334C00013B002B73601CDD336801333360A368D1
:10335C00013BA360DFE7B8F1020FB1D1226802F4A0
:10336C00C061B1F5007FC2D1102142F4807261605E
:10337C00A5E722F4106222600B78013505F8013CB8
:10338C00DDE7D4F880313146584698470028DED026
:10339C002368D9050CD54D4508D915F8011C6F1EAD
:1033AC00D4F87C313246584698473D464D452CD092
:1033BC00226812F010021ED12A70636849465846E2
:1033CC00009EB0472268DAF8003012F0200F08D0C7
:1033DC001A1DCAF800201B68186009E04FF000089D
:1033EC00D6E7D207F4D51A1DCAF800201B6818803E
:1033FC00E3680133E3600020A5EB0905A8442569C7
:10340C004544256107B0BDE8F08F0120FAE700BF05
:10341C00CC3B000885350008B5270008E83B0008C0
:10342C0070B50B78441E5E2B13BF4A1C8A1C4B785C
:10343C00002108BF012100F1FF0504F8011FA5427E
:10344C00FBD113B9013A104670BD81F0010411464D
:10345C00C4540D784A1C2D2D06D05D2DF3D00DB91A
:10346C000A46F0E72B46F2E74E785D2EFAD0B342CF
:10347C00F8DC023101339E42C454FBDCE9E72DE950
:10348C00F0478046894692461E460F463D460898B0
:10349C0015F8014BFFF7B0F92044437813F00803FB
:1034AC000AD12D2C0AD101232C78BD1C5EB1102E13
:1034BC0013D1302C09D010E02F46E7E72B2C04BF9A
:1034CC002C78BD1CF2E7302C25D12A7802F0DF02D3
:1034DC00582A4AD110266C7802354FF0FF31B1FBD7
:1034EC00F6F1002706FB01FE38466FEA0E0EA4F13A
:1034FC003002092A11D81446A6421DDD002F18DB14
:10350C00814216D301D1A64513DB012700FB0640EF
:10351C0015F8014BEBE70A26DFE7A4F14102192A63
:10352C0001D8373CE8E7A4F16102192A04D8573CCA
:10353C00E2E74FF0FF37EBE7002F09DA22234FF0D9
:10354C00FF30C8F80030BAF1000F07D1BDE8F087A2
:10355C0003B14042BAF1000F0CD027B1013DCAF8BB
:10356C000050BDE8F0874D46F9E73024002EB4D169
:10357C000826B2E7BDE8F08737B5064C064D24683F
:10358C00246A002C08BF2C460094FFF778FF03B088
:10359C0030BD00BF30000020940000202DE9F04128
:1035AC000C46496B04F1440399421CD14FF48061E1
:1035BC0000F0AEF818B94FF0FF30BDE8F0814FF4D1
:1035CC008063A36394F84630606380F8FF3394F80B
:1035DC00453000F2FD30437094F8443003702060A5
:1035EC000020BDE8F081A66B77003A4600F0EEF8BB
:1035FC0005460028DFD000EB06080146324640465F
:10360C00FEF7BAFFC4F800806563A763E8E749B129
:10361C00FF2A8BBF8A230A700360012088BF4FF0FA
:10362C00FF3070470846704710B5C9B2024490424B
:10363C00034601D1002010BD1C7801308C42F6D11C
:10364C00184610BD884210B501EB020303D8421E88
:10365C0099420CD110BD9842F9D28118D21AD3429A
:10366C0000D110BD13F8014D01F8014DF7E711F829
:10367C00014B02F8014FEBE738B50546002943D062
:10368C0051F8043C0C1F002BB8BFE41800F0D4F820
:10369C001E4A1368104633B9636014602846BDE8AF
:1036AC00384000F0CAB8A3420BD921686218934283
:1036BC0001BF1A685B685218226063600460EDE712
:1036CC0013465A680AB1A242FAD919685818A0428E
:1036DC000BD120680144581882421960DED1106861
:1036EC005268014419605A60D8E702D90C232B6048
:1036FC00D4E7206821188A4201BF11685268091862
:10370C00216062605C60C9E738BD00BF7024002096
:10371C0070B5CD1C25F0030508350C2D38BF0C25D4
:10372C00002D064601DBA94203D90C23336000208F
:10373C0070BD00F081F8234A1468214691B9224CDF
:10374C0023681BB9304600F067F8206029463046E4
:10375C0000F062F8431C26D10C233046336000F095
:10376C006CF8E4E70B685B1B1AD40B2B0FD90B60BE
:10377C00CC18CD50304600F060F804F10B00231D3E
:10378C0020F00700C31A1BD05A42E25070BD8C4285
:10379C000BBF63684B681360636018BF0C46E9E7A6
:1037AC000C464968CAE7C41C24F00304A04205D0A7
:1037BC00211A304600F030F80130CDD02560D9E721
:1037CC0070BD00BF7024002074240020F8B507469B
:1037DC0014460E4621B91146BDE8F840FFF798BFD4
:1037EC0022B9FFF749FF25462846F8BD00F026F818
:1037FC0084420FD921463846FFF78AFF0546002838
:10380C00F2D031462246FEF7B7FE31463846FFF776
:10381C0033FFE9E73546E7E738B50023054C0546A5
:10382C0008462360FDF7B6FA431C02D1236803B1A6
:10383C002B6038BD782400207047704751F8040C79
:10384C000028A0F10400BCBF0B58C01870474154AD
:10385C002B434D44444F574E4359433D25642C252F
:10386C00642C25642C22255B3031323334353637C9
:10387C0038396162636465664142434445465D2262
:10388C000D0A0041542B434D44444F574E4359436A
:10389C000041542B434D44524D0041542B434D4455
:1038AC004745545F53494D49440041542B434D44C3
:1038BC005345545F44455649434549440041542BB4
:1038CC00434D444745545F414343444154410041B7
:1038DC00542B434D444745545F4C4F434154494F3F
:1038EC004E0041542B434D445345544750533D00D7
:1038FC0041542B434D445345545F5245534554005A
:10390C0041542B434D444745545F4353510041545C
:10391C002B434D44343835424155443D0041542BE2
:10392C00434D44524D3D25640D0A002B43494F54E1
:10393C005354415455533A20310041542B43494F71
:10394C00545354415455530D0A002B43494F54536F
:10395C0054415455533A002B43494F5453544154FA
:10396C0055533A202564002B4353513A32332C39AA
:10397C0039002B4353513A002B4353513A256400E1
:10398C002B4347534E3A20312C30313233343536B9
:10399C0037383930313233340041542B4347534E8E
:1039AC000D0A002B4347534E002B4347534E3A20EE
:1039BC00312C002B434349443A20312C22393836E0
:1039CC0038323030423632353130433230303036A6
:1039DC0035220041542B434349443F0D0A002B43ED
:1039EC00434944002B434349443A20302C220025C0
:1039FC005B30313233343536373839414243444504
:103A0C00465D002B435245473A20312C310041543E
:103A1C002B435245473F0D0A0041542B4353510D44
:103A2C000A0041542B434744434F4E543D312C2202
:103A3C004950222C22434D4E4554220D0A0041542C
:103A4C002B43474143543D312C310D0A002B434944
:103A5C004F54434D443A0042494E5F444154412C2B
:103A6C002C2573002B43494F5450494E473A204F55
:103A7C004B0041542B43494F5450494E470D0A00BB
:103A8C00434F4E4E454354204F4B0041542B43491A
:103A9C004F544441543D302C25642C222573220D67
:103AAC000A006373712C2C25643B636F756E742C48
:103ABC002C25640069636369642C2C2573004154C4
:103ACC002B43494F543F0D0A0039373832310041EE
:103ADC00542B43494F5450524F49443D25730D0AC2
:103AEC0000556A454B6377546A304643696C3364BE
:103AFC006D77656B70554758346548593D00415496
:103B0C002B43494F544D4B45593D222573220D0AE9
:103B1C000041542B43494F5441555448494E464F4C
:103B2C003D222573220D0A0041542B43494F544921
:103B3C004E49543D222573222C222573220D0A0056
:103B4C007A71647A0041542B43494F54494E49547D
:103B5C000D0A0041542B43494F54434F4E4E45439D
:103B6C0054504152413D310D0A00434F4E4E454396
:103B7C00540041542B43494F5453544152543D30FB
:103B8C000D0A00504F534958002E00232D302B2086
:103B9C0000686C4C0065666745464700303132332F
:103BAC00343536373839414243444546003031329A
:103BBC00333435363738396162636465660000002A
:103BCC00EA3B0008ED3B0008F03B0008412D466144
:103BDC002D66383930313233343536375D002B2D84
:103BEC000030300078580000202020202020202099
:103BFC002028282828282020202020202020202091
:103C0C0020202020202020208810101010101010B0
:103C1C0010101010101010100404040404040404F8
:103C2C000404101010101010104141414141410189
:103C3C000101010101010101010101010101010168
:103C4C000101011010101010104242424242420277
:103C5C000202020202020202020202020202020238
:103C6C0002020210101010200000000000000000E2
:103C7C000000000000000000000000000000000038
:103C8C000000000000000000000000000000000028
:103C9C000000000000000000000000000000000018
:103CAC000000000000000000000000000000000008
:103CBC0000000000000000000000000000000000F8
:103CCC0000000000000000000000000000000000E8
:103CDC0000000000000000000000000000000000D8
:103CEC0000000000000000000000000000000000C8
:103CFC0000000000000000000000000000000000B8
:103D0C0000000000000000000000000000000000A7
:103D1C000000000000000000000000000000000097
:103D2C000000000000000000000000000000000087
:103D3C000000000000000000000000000000000077
:083D4C0000000000000000006F
:103D54000204060800000000010203040102030437
:103D6400060708090402002000000000000000000B
:103D740000000000010203040607080900A24A0427
:103D84003400002000000000143D0008343D000809
:103D9400F43C0008000000000000000000000000E7
:103DA400000000000000000000000000000000000F
:103DB40000000000000000000000000000000000FF
:103DC40000000000000000000000000000000000EF
:103DD40000000000000000000000000000000000DF
:103DE400000000004300000000000000000000008C
:103DF40000000000000000000000000000000000BF
:103E0400000000004300000000000000000000006B
:103E1400000000000000000000000000000000009E
:103E2400000000004300000000000000000000004B
:103E3400000000000000000000000000000000007E
:103E4400000000004300000000000000000000002B
:103E5400000000000000000000000000000000005E
:103E6400000000004300000000000000000000000B
:103E7400000000000000000000000000000000003E
:103E840000000000430000000000000000000000EB
:103E9400000000000000000000000000000000001E
:103EA40000000000430000000000000000000000CB
:103EB40000000000000000000000000000000000FE
:103EC400000000001B36000829280008000000003C
:103ED400F33B0008953B0008493A0008493A0008BA
:103EE400493A0008493A0008493A0008493A0008A2
:103EF400493A0008493A0008493A0008FFFFFFFF21
:103F0400FFFFFFFFFFFFFFFFFFFF00000100415322
:103F140043494900000000000000000000000000C8
:103F240000000000000000000000000000004153F9
:103F340043494900000000000000000000000000A8
:103F4400000000000000000000000000000000006D
:04000005080001E509
:00000001FF
