:020000040800F2
:100000000050002057010008550100084101000878
:100010003F0100082B010008170100080000000044
:1000200000000000000000000000000015010008B2
:100030001301000800000000110100080F01000872
:100040000D0100080D0100080D0100080D01000858
:100050000D0100080D0100080D0100080D01000848
:100060000D0100080D0100080D0100080D01000838
:100070000D0100080D0100080D0100080D01000828
:100080000D0100080D0100080D0100080D01000818
:100090000D0100080D0100080D0100080D01000808
:1000A0000D0100080D0100080D0100080D010008F8
:1000B0000D0100080D0100080D0100080D010008E8
:1000C0000D0100080D0100080D0100080D010008D8
:1000D0000D0100080D0100080D0100080D010008C8
:1000E0000D0100080D0100080D01000800000000CE
:1000F0000000000000000000000000000000000000
:1001000000000000000000005FF808F1FEE7704703
:10011000FEE7FEE7FEE71EF0040F0CBFEFF30880DA
:10012000EFF309807146BB4A10471EF0040F0CBF65
:10013000EFF30880EFF309807146B74A1047FEE7F6
:100140001EF0040F0CBFEFF30880EFF30980714637
:10015000B24A1047FEE7B2480047FEE7FEE7FEE777
:100160002DE9804887B0924B00AF1A6842F0010237
:100170001A6059688F4A0A405A601A6822F08472DD
:1001800022F480321A601A6822F480221A605A68B7
:1001900022F4FE025A604FF41F029A6000223A6174
:1001A0007A611A6842F480321A601A6802F40032E6
:1001B0007A613A6901323A617A691AB93A69B2F5F3
:1001C000A06FF2D11A6812F4003218BF01227A61CE
:1001D0007A69012A00F087804FF00061764A7748FB
:1001E0009160774991607749774A8242C0F0AD804B
:1001F0000020764A76498A42C0F0AC805968754A38
:1002000001F00C01042902D0082900F0A6807249EF
:10021000002511605B687149C3F30313C95C704E1C
:100220001368704CCB40A41B1360A410AC4200F3C5
:10023000A48000256C4E6D4CA41BA410AC4200F3AE
:10024000A180DFF8C491DFF8C4A1DFF8C481684E53
:1002500080224946504600F0F9F84FF48072494632
:10026000304600F019FA3378AA2B20D100252A460F
:1002700073687488DFF87CB105F1006101F52051E5
:10028000F960511CB960A9B28C4203EB05007ED81D
:1002900092B2A4EBC224002C09DD6410A2B255492D
:1002A00000F0D4F822465349F86800F037F9D8F83E
:1002B000003003F07F43B3F1006FC8D15523802293
:1002C0004B495046337000F029F94B4A4B4B1168AB
:1002D0000B40B3F1005FBAD1D8F80030126882F356
:1002E00008889847B3E7464A116841F01001116049
:1002F000116821F003011160116841F002011160E1
:100300005A685A605A685A605A6842F480625A6061
:100310005A6822F47C125A605A6842F4E8125A6011
:100320001A6842F080721A601A689501FCD55A6802
:1003300022F003025A605A6842F002025A605A6878
:1003400002F00C02082AFAD146E751F8044F42F8AD
:10035000044B4AE742F8040B4DE759685868C1F36B
:100360008341C40301F1020102D4264841434FE70F
:1003700058688003F9D41848F8E756F825309847AC
:10038000013553E756F825309847013556E74FF4C5
:10039000806259467B6000F059F84FF480625946FC
:1003A000F86800F0BBF805F50065BA687B6863E79C
:1003B000001002400000FFF800ED00E014000020F3
:1003C0000000000880070008000000201400002042
:1003D000382200201000002000127A0000000020C7
:1003E0004C0400084C0400084C0400084C040008AD
:1003F000141C0020281E0020002800080000FE2FEA
:100400000020024000093D00281C002000FF0008D9
:10041000042800085B0100085D0100085F01000876
:10042000610100088407000800000020140000207B
:1004300084070008000000000000000014000020F5
:1004400038220020000000000000000001EB420202
:10045000401A914200D17047435A21F8023BF8E715
:1004600000231946044A995401330E2BFBD1012273
:10047000024B1A70704700BF29220020282200205A
:10048000084BDA68D10709D4DA68520708D4DB6868
:1004900013F0100F14BF0320042070470120704791
:1004A000022070470020024010B50446FFF7E8FF25
:1004B000012806D10CB9052010BDFFF7E1FF013C72
:1004C000F6E7002C08BF052010BD00002DE9F0471D
:1004D000074688461646002441F6FE790E4DA3B223
:1004E0009E4201D8BDE8F0874FF4005038F813A0C1
:1004F000FFF7DAFF04280DD12B694FF4005043F0C9
:1005000001032B6127F814A0FFF7CEFF2B6903EA44
:1005100009032B610134E2E7002002402DE9F04F8E
:10052000574B90461A7885B082468B4603930AB99A
:10053000FFF796FF0022534911F8013F33B1013212
:100540000A2AF9D112E00133042B03D0C85C002839
:10055000F9D0F4E74C494D4F88188B5443708370A1
:10056000C3705302FF180193029102D105B0BDE898
:10057000F08F0AF17844B4F5003FF7D2C4F348098C
:10058000C9F50076464528BF4646414D414B24F407
:100590007F746B6024F0030403F188336B6004F113
:1005A00000644FF4007239462046FFF74FFF0022E7
:1005B00093B29E4203D83246594650462AE04FF63F
:1005C000FF714B4437F8133001328B42F0D04FF4B7
:1005D0003020FFF769FF042812D12B694FF4302037
:1005E00043F002032B616C612B6943F040032B61E4
:1005F000FFF75AFF2B6923F00203DB04DB0C2B61AE
:10060000002293B29E4202F1010217D84FF4007209
:1006100039462046FFF75AFFB04504F5806413D0F1
:10062000A8EB0608B8F5007F0BEB460BB2444FF081
:100630000009464628BF4FF40076B2E73BF8131096
:100640004B4427F81310DCE7114A136943F0800389
:100650001361039B1B7823B905B0BDE8F04FFFF78A
:10066000FFBE019B029A5B0AD15C00220298034400
:10067000104691427FF77AAF98540132F9E700BFF4
:1006800028220020282200202922002014000020F7
:100690000020024023016745844641EA000313F02D
:1006A000030349D1403A23D30B6803604B6843608E
:1006B0008B688360CB68C3600B6903614B694361DE
:1006C0008B698361CB69C3610B6A03624B6A4362C6
:1006D0008B6A8362CB6AC3620B6B03634B6B4363AE
:1006E0008B6B8363CB6BC36340304031403ADBD2CA
:1006F00030320BD30B6803604B6843608B688360B8
:10070000CB68C36010301031103AF3D20C3205D3ED
:1007100051F8043B40F8043B043AF9D2043208D0C3
:10072000D2071CBF11F8013B00F8013B01D30B8835
:1007300003806046704700BF082A13D38B07B1D0EF
:1007400010F00303AED0C3F10403D21ADB071CBFC1
:1007500011F8013B00F8013BA4D331F8023B20F82B
:10076000023B9FE7043AD9D3013A11F8013B00F864
:10077000013BF9D20B7803704B7843708B78837010
:100780006046704700000000000000000102030402
:080790000607080900A24A0453
:1028000000500020E52A0008EB2A0008EF2A000803
:10281000072B00080B2B0008232B000800000000EA
:102820000000000000000000000000003B2B00083A
:102830003F2B000800000000432B0008694B0008F4
:10284000552B0008552B0008552B0008552B000868
:10285000552B0008552B0008552B0008552B000858
:10286000552B0008B5490008552B0008552B0008CA
:10287000552B0008552B0008552B0008552B000838
:10288000552B0008B94F0008552B0008552B0008A0
:10289000552B0008552B0008552B0008552B000818
:1028A000552B0008552B0008552B0008552B000808
:1028B000A94C0008F94B0008552B0008552B0008BF
:1028C000552B0008552B0008552B0008552B0008E8
:1028D000552B0008D54F000869500008CD5000085E
:1028E000552B0008552B0008552B0008552B0008C8
:1028F000552B0008552B0008552B0008552B0008B8
:10290000552B0008552B0008552B0008552B0008A7
:10291000552B0008552B0008552B0008552B000897
:10292000552B0008552B0008552B0008552B000887
:102930000000000000000000000000000000000097
:102940000000000000000000000000000000000087
:102950000000000000000000000000000000000077
:102960000000000000000000000000000000000067
:102970000000000000000000000000000000000057
:102980000000000000000000000000000000000047
:102990000000000000000000000000000000000037
:1029A0000000000000000000000000000000000027
:1029B0000000000000000000000000000000000017
:1029C0000000000000000000000000000000000007
:1029D00000000000000000000000000000000000F7
:1029E0005FF8E0F107B500F029FE2C4B2C492D4A89
:1029F0002D4C2E482E4D0B601360A84208D308685A
:102A00002C49884203D111682B4A914205D0FEE738
:102A100054F8046F40F8046BEFE700242749284A74
:102A20000B6028481360284B834204D30B680BB912
:102A300014681CB1FEE743F8044BF5E700F00AFE0A
:102A400001A9684600F0F2FD204E214DAD1BAD10EE
:102A5000A54214DC00251F4E1F4CA41BA410AC4241
:102A600012DC9DE8030001F0A1FD06461B4D1C4C45
:102A7000641BA410002C0CDC304600F0B7FD56F8A7
:102A8000243098470134E3E756F82530984701355C
:102A9000E5E7013C55F824309847EBE7BABADECABF
:102AA0000000002004020020307000080000002018
:102AB000080200207856341232547698080200201A
:102AC0003C4800204048002008020020802B0008DD
:102AD000802B0008802B0008802B0008802B00082A
:102AE000802B000808B5FFF77DFF00BEFEE71EF053
:102AF000040F0CBFEFF30880EFF309807146124A10
:102B0000104700BEFEE700BEFEE71EF0040F0CBF3C
:102B1000EFF30880EFF3098071460C4A104700BEBE
:102B2000FEE71EF0040F0CBFEFF30880EFF30980FF
:102B30007146074A104700BEFEE700BEFEE700BE32
:102B4000FEE700BEFEE77047032B00081F2B0008BE
:102B5000372B000800BEFEE734700008000000209C
:102B6000080200203470000800000000000000008F
:102B70000802002040480020000000000000000083
:102B800040F0BF60024B40F40030D860704700BF97
:102B900000ED00E010B5C2780378E2B1124AD168C6
:102BA0004278C943C1F30221C1F10404A2400F24B9
:102BB000807824FA01F101400A430C491201C81837
:102BC000D2B280F8002303F01F005A09012383408A
:102BD00041F8223010BD01215A0903F01F0301FA08
:102BE00003F320320149F3E700ED00E000E100E0EB
:102BF000036823F001031B041B0C03600023036024
:102C000043608360C360294B984204D1284A5368CB
:102C100043F00F0326E0274B984204D1244A53681F
:102C200043F0F0031EE0244B984204D1204A53683D
:102C300043F4706316E0214B984204D11C4A536858
:102C400043F470430EE01E4B984204D1184A536877
:102C500043F4702306E01B4B984205D1144A536895
:102C600043F4700353607047174B984204D1104AE5
:102C7000536843F07063F5E7144B984201D1144A4E
:102C8000C5E7144B984201D1114AC8E7124B98424C
:102C900001D10F4ACBE7114B984201D10C4ACEE744
:102CA0000F4B9842DFD10A4AD1E700BF080002402B
:102CB000000002401C00024030000240440002407C
:102CC000580002406C0002408000024008040240AC
:102CD000000402401C04024030040240440402404C
:102CE000580402408B6810B50C6A026823430C69D3
:102CF00022F4FF4223434C6922F0700223438C6983
:102D00002343CC6923434C6A23438C6A23431343F4
:102D10000360CB6843600B6883604B68C36010BD81
:102D2000036819B143F001030360704723F0010306
:102D30001B041B0CF8E70000C3004CBF014B024B07
:102D4000586070470004024000000240054B1A68BA
:102D50005B69034004D0024214BF01200020704789
:102D60001846704700040140014B5861704700BF8E
:102D700000040140034A136803F03803184310604D
:102D8000704700BF00200240044B1A6822F0100276
:102D90001A601A6810431860704700BF0020024094
:102DA000034B044A5A6002F188325A60704700BFF0
:102DB0000020024023016745FFF7F2BF024A136972
:102DC00043F080031361704700200240FFF7F6BF15
:102DD000084BDA68D10709D4DA68520708D4DB68EF
:102DE00013F0100F14BF0320042070470120704718
:102DF000022070470020024010B50446FFF7E8FFAC
:102E0000012806D10CB9052010BDFFF7E1FF013CF8
:102E1000F6E7002C08BF052010BD000070B5054680
:102E20004FF400500E46FFF7E7FF04280FD1084C7F
:102E30004FF40050236943F0010323612E80FFF714
:102E4000DBFF236923F00103DB04DB0C236170BD8E
:102E50000020024038B505464FF43020FFF7CCFF84
:102E6000042813D10A4C4FF43020236943F00203A5
:102E700023616561236943F040032361FFF7BCFFD1
:102E8000236923F00203DB04DB0C236138BD00BFA0
:102E900000200240CB782DE9F041DA0648BF8A785D
:102EA0000E8803F00F0548BF154316F0FF0F1AD028
:102EB00000214FF0010E4FF00F0C02680EFA01F7DF
:102EC00037EA06040BD18C000CFA04F822EA080257
:102ED00005FA04F4282B42EA040225D147610131A6
:102EE0000829EBD10260FF2E1CD900214FF0010E02
:102EF0004FF00F0C426801F108040EFA04F434EAB2
:102F000006070BD18F000CFA07F822EA080205FA2F
:102F100007F7282B42EA07020AD144610131082948
:102F2000E9D14260BDE8F081482B08BF0761D6E7D0
:102F3000482B08BF0461F1E70161704741617047A8
:102F4000014B1860704700BF00300040014B5860D3
:102F5000704700BF00300040014B9860704700BFD1
:102F6000003000404AF6AA22014B1A60704700BFA9
:102F7000003000404CF6CC42014B1A60704700BF55
:102F8000003000400D4B1A6842F001021A60596887
:102F90000B4A0A405A601A6822F0847222F4803286
:102FA0001A601A6822F480221A605A6822F4FE021B
:102FB0005A604FF41F029A60704700BF0010024031
:102FC0000000FFF80C4BB0F5803F1A6822F4803205
:102FD0001A601A6822F480221A6003D0B0F5802F9C
:102FE00005D070471A6842F480321A6070471A6838
:102FF00042F4A022F9E700BF00100240034A5368E0
:1030000023F47C13194301435160704700100240C0
:10301000014B1860704700BF60004242034A53688A
:1030200023F0030318435060704700BF00100240B4
:10303000024B586800F00C00704700BF00100240BF
:10304000034A536823F0F00318435060704700BFF1
:1030500000100240034A536823F4E06318435060B1
:10306000704700BF00100240034A536823F46053C6
:1030700043EAC00050607047001002401C4A10B57F
:10308000536803F00C03042B01D0082B1FD0194BFD
:1030900003605368184CC3F30313E15C0368CB402F
:1030A00043605168C1F30221615C23FA01F1816040
:1030B0005168C1F3C221615CCB40C36052680F49C3
:1030C000C2F381328A5CB3FBF2F3036110BD536833
:1030D0005168C3F38343CC0303F1020302D40849CC
:1030E0004B43D5E751688903F9D40249F8E700BF9B
:1030F0000010024000127A000800002004000020A6
:1031000000093D00044B5A6911B1104358617047E2
:1031100022EA0000FAE700BF00100240044B9A695F
:1031200011B110439861704722EA0000FAE700BF2E
:1031300000100240044BDA6911B11043D8617047A6
:1031400022EA0000FAE700BF00100240044BDA68F0
:1031500011B11043D860704722EA0000FAE700BFBF
:1031600000100240044B1A6911B1104318617047F6
:1031700022EA0000FAE700BF001002404209012ADB
:10318000074B07D11B6800F01F0023FA00F000F086
:1031900001007047022A0CBF1B6A5B6AF3E700BF9D
:1031A00000100240002307B501933120FFF7E6FF2E
:1031B000019B01330193019BB3F5A06F01D000285F
:1031C000F3D03120FFF7DAFF003018BF012003B041
:1031D0005DF804FB08B5614B98420BD101214FF417
:1031E0000060FFF7B3FF00214FF40060BDE8084026
:1031F000FFF7ACBFB0F1804F09D101210846FFF7BE
:10320000B1FF00210120BDE80840FFF7ABBF544BE0
:10321000984206D101210220FFF7A4FF00210220DD
:10322000F1E7504B984206D101210420FFF79AFFA5
:1032300000210420E7E74C4B984206D101210820E9
:10324000FFF790FF00210820DDE7484B984206D1A8
:1032500001211020FFF786FF00211020D3E7444B07
:10326000984206D101212020FFF77CFF0021202079
:10327000C9E7404B984208D101214FF40050FFF7B5
:1032800065FF00214FF40050B0E73B4B984208D156
:1032900001214FF40020FFF759FF00214FF40020D7
:1032A000A4E7364B984208D101214FF48010FFF774
:1032B0004DFF00214FF4801098E7314B984208D120
:1032C00001214FF40010FFF741FF00214FF40010DF
:1032D0008CE72C4B984206D101214020FFF742FF9A
:1032E000002140208FE7284B984206D10121802001
:1032F000FFF738FF0021802085E7244B984208D152
:1033000001214FF48070FFF72DFF00214FF48070F2
:1033100079E71F4B984208D101214FF48030FFF725
:1033200015FF00214FF4803060E71A4B984208D116
:1033300001214FF40030FFF709FF00214FF4003066
:1033400054E7154B984208D101214FF48020FFF734
:10335000FDFE00214FF4802048E708BD002C01400D
:103360000004004000080040000C00400010004035
:103370000014004000340140004C01400050014066
:103380000054014000180040001C00400020004094
:10339000004001400044014000480140224A0388A7
:1033A00090429BB212D002F5006290420ED0B0F172
:1033B000804F0BD0A2F59832904207D002F5806280
:1033C000904203D002F58062904203D14A8823F0F4
:1033D00070031343154A904208D002F58062904270
:1033E0001FBF23F44073CA889BB2134303808B88AA
:1033F00083850B8803850C4B98420FD003F500633F
:1034000098420BD003F54063984207D003F58063E0
:10341000984203D003F58063984201D10B7A03866A
:1034200001238382704700BF002C01400010004040
:10343000038821B19BB243F001030380704723F05E
:1034400001031B041B0CF8E783899BB212B11943DB
:103450008181704723EA0101FAE7FFF7F5BF038A8C
:10346000828911EA030092B203D0114214BF0120F5
:1034700000207047C94389B20182704730B50D46BC
:103480000446038A8A899BB2C98823F440530B43BC
:1034900003828389A98823F4B05323F00C031B040F
:1034A0001B0C0B43298987B00B4369890B439BB2E3
:1034B0008381838A9BB223F440731343838201A8E0
:1034C000FFF7DCFD174A039B0499944218BF194685
:1034D0001922A3894A4313F4004F2B684FF0640567
:1034E00014BF5B009B00B2FBF3F1B1FBF5F3A289C3
:1034F0001801120405FB13130BD5DA003232B2FBAC
:10350000F5F202F0070242EA00039BB2238107B002
:1035100030BD1B013233B3FBF5F303F00F0303435C
:10352000F3E700BF00380140838921B19BB243F427
:1035300000538381704723F400531B041B0CF8E7EE
:1035400001F01F0310B5C1F342140121012C01FA4F
:1035500003F105D10C3003683AB11943016010BD85
:10356000022C0CBF10301430F5E723EA0101F5E717
:10357000838A9BB212B119438182704723EA010109
:10358000FAE7C1F30801818070478088C0F3080022
:1035900070470388194214BF01200020704701239F
:1035A000C1F3421210B5012A01F01F0403FA04F31B
:1035B0000ED1828992B21340028892B26BB101237C
:1035C000090A03FA01F10A4214BF1846002010BD8F
:1035D000022A0CBF028A828AECE7184610BD0B0A49
:1035E00001219940C94389B201807047FEE700007C
:1035F0000B4A08B51168034609B90A4911601068F9
:10360000033323F00303084903448B4206D902F035
:1036100041F80C2303604FF0FF3008BD136008BD74
:103620000C02002040480020004C002001230360D1
:10363000014B0B60704700BF1800002008B500F078
:103640000BF8024B024A9A6008BD00BF00ED00E093
:103650000028000800F07AB8374B82B01A6842F0B0
:1036600001021A605968354A0A405A601A6822F005
:10367000847222F480321A601A6822F480221A605E
:103680005A6822F4FE025A604FF41F029A60002228
:10369000009201921A6842F480321A601A6802F4A9
:1036A00000320192009A01320092019A1AB9009AEE
:1036B000B2F5A06FF2D11A6812F4003218BF0122DD
:1036C0000192019A012A04D01D4A1E4B9A6002B051
:1036D00070471D4A116841F010011160116821F016
:1036E00003011160116841F0020111605A685A60CB
:1036F0005A685A605A6842F480625A605A6822F4E2
:103700007C125A605A6842F4E8125A601A6842F011
:1037100080721A601A689201FCD55A6822F003027E
:103720005A605A6842F002025A605A6802F00C026B
:10373000082AFAD1C8E700BF001002400000FFF8D5
:103740000028000800ED00E000200240114A124B62
:10375000516801F00C01042901D008290AD00F4951
:10376000196052680E49C2F30312895C1A68CA4094
:103770001A60704751685068C1F38341C00301F17A
:10378000020102D407484143EAE750688003F9D4B4
:103790000248F8E7001002403000002000127A00D2
:1037A0002000002000093D0070B588250C46A6B019
:1037B00006AE05AB009303AA04AB01960C4901F0D9
:1037C000AFFF039A314605FB02F3E254E018049B75
:1037D000083020F8063C059B40F8043C01F0CCFF83
:1037E0000122039B05FB03435A7026B070BD00BF46
:1037F0007669000813B50C4601AA064901F090FF4E
:10380000019909299FBF882303FB014100234B70C5
:1038100002B010BD6F6A00082DE9F041882000F069
:10382000EBFF0646114C124DDFF84880314644222A
:10383000284601F0E9F804F18807611C731E14F8AA
:10384000010F13F8012F90420DD04422284601F0B9
:10385000F4F805F5807545453C46E7D13046BDE8AE
:10386000F04101F001B8BC42E9D1F2E79B2400200D
:1038700000F0000800FA0008F0B5604B9BB01B7820
:1038800013B100201BB0F0BD5D4801F07DFF5D4D20
:1038900004462B88002BF4D05B49594801F07CFF8B
:1038A00048B15A495648FFF77FFFFFF7B5FF00239D
:1038B00001202B80E6E75649514801F06DFF20B109
:1038C00052494F48FFF796FFEFE752494C4801F045
:1038D00063FF10B100F07EFDE9E74F49484801F071
:1038E0005BFF0028E3D14D49454801F055FF002812
:1038F000DDD14B49424801F04FFF0028D7D149495B
:103900003F4801F049FF0028D1D147493C4801F028
:1039100043FF0028CBD14549394801F03DFF20B194
:103920004FF47A7000F076FDC1E74149344801F068
:1039300033FF0028BBD13F49314801F02DFFA4B22D
:10394000002846D03B4801F01FFF201A400800F035
:1039500053FF0646374801F017FF211A3246C1F3DC
:103960004F01354800F0DCFF324801F00DFF221A0C
:10397000324C52083146204601F092FE00F0CCF85D
:10398000042809D123882E4A642101A801F094FE5D
:1039900001A800F0B3FD8AE7032814D1294A642165
:1039A00001A801F089FE01A800F0A8FDBFF34F8F28
:1039B0002549264BCA6802F4E0621343CB60BFF38B
:1039C0004F8F00BFFDE7224A642101A801F074FE79
:1039D000DEE76608304600F00FFF07460246214644
:1039E000074800F09DFF324639461A4801F058FE5C
:1039F000384600F039FF184B1E7058E711020020BE
:103A00009A20002098200020AB6900089C24002008
:103A1000B9690008C2690008D2690008E5690008B0
:103A2000F76900080A6A0008186A0008286A00088E
:103A3000366A0008456A0008A1200020F429002009
:103A40004D6A0008576A000800ED00E00400FA051E
:103A5000646A00084E0200204F040020002330B5A5
:103A60001A4601250C7844FA02F1C90742BFC2F197
:103A7000070105FA01F10B4302F1010248BFDBB275
:103A8000082AF0D1037030BD002330B51A46012555
:103A90000C8844FA02F1C90742BFC2F10F0105FACE
:103AA00001F10B4302F1010248BF9BB2102AF0D191
:103AB000038030BD0023F0B5044648F2050785B009
:103AC00004ADADF8062005F8013D4618B44208D112
:103AD0000DF106010846FFF7D7FFBDF8060005B057
:103AE000F0BD14F8013B294628468DF80F30FFF74A
:103AF000B5FF9DF80F20BDF8063083EA02230822A7
:103B000013F4004F4FEA430318BF7B40013A9BB2C6
:103B1000F6D1ADF80630D9E73A4A2DE9F0471388D7
:103B2000394C002B42D1A3881380384F3B68002BBF
:103B300042D163883B602388354E013B354D9BB2B3
:103B400006EB43234FF6FF724FF4007132482B60AF
:103B5000FFF7B0FFB4F8063283424DD14FF48072C4
:103B60002D49286800F069FF2A682C4B13443A68F5
:103B7000934244D34FF000084746DFF8AC902E60E4
:103B800023881FFA88FA53451CD8A388BB4210D15A
:103B9000AA2323490A220B70638822484B808F6036
:103BA0004E6000F04AFF0320BDE8F087A2889A42E9
:103BB000BBD00020BDE8F08762889342BBD00220D2
:103BC000BDE8F0874FF480724946286800F01CFF7A
:103BD000BAF1000F0ED14FF6FF724FF40071484654
:103BE000FFF768FF2B68074603F500732B6008F1A9
:103BF0000108C5E73A46F0E70120BDE8F087042058
:103C0000BDE8F08712020020F429002014020020F1
:103C1000FF7F0008EC290020FA2900200182FFF72D
:103C2000FC2F002000FF0008FC2B002008B545F207
:103C30005550FFF785F90620FFF788F940F6FF7029
:103C4000FFF78AF9BDE80840FFF794B9FFF78AB992
:103C50000A460146014801F069B900BF004800402A
:103C6000CAB20146014801F075BA00BF00480040E1
:103C70002DE9F84F06464FF48070894600F0BCFDF0
:103C8000044636B92349304601F0F1FC0120BDE875
:103C9000F88F0025642000F055FFAB464FF0640814
:103CA000DFF880A03046BAF8007001F06DFD874261
:103CB00018D939462046FFF7D3FF04F807B031463C
:103CC000204601F069FD68B122461349002001F049
:103CD000CEFC124801F02AFA204600F0C5FD002073
:103CE000BDE8F88F01356420EDB200F02BFF05FB35
:103CF00008834B45D6D944B122460749002001F03C
:103D0000B6FC204600F0B0FDC0E70549204601F0B2
:103D1000AEFCF6E7316D0008446D00080048004035
:103D2000506D00087A1C002070B504460E480D4600
:103D3000164601F0FBF922460C49002001F097FCE1
:103D4000204601F021FD81B22046FFF781FF314678
:103D50002846FFF78DFF28B122460549002001F0D3
:103D600086FC012070BD00BF00480040DF6C0008E9
:103D7000F26C000837B501210420FFF7CFF91023BA
:103D800040258DF8073001230B4C01A920468DF802
:103D90000630ADF80450FFF77DF829462046FFF7BE
:103DA000CDF84FF47A6000F0F7FD29462046FFF782
:103DB000C3F803B030BD00BF0008014010B5074C88
:103DC00042F2107221460648FFF7AEFF2146BDE8D9
:103DD000104042F210720348FFF7A6BF466C00087D
:103DE000F96B0008156C000800B5A3B0324B334ADC
:103DF000802102A801F060FC40F6B832304902A8E8
:103E0000FFF792FF4FF4FA7000F09CFE2D4B2E4A04
:103E1000802102A801F050FC40F6B832284902A8DF
:103E2000FFF782FF4FF4FA7000F08CFE274B284A10
:103E3000802102A801F040FC40F6B832204902A8D7
:103E4000FFF772FF4FF4FA7000F07CFE214B224A1C
:103E5000009380211D4B02A801F02EFC40F6B832E1
:103E6000174902A8FFF760FF4FF4FA7000F06AFEEE
:103E700041F2883212491948FFF756FF4FF4FA70A1
:103E800000F060FE41F288320D491548FFF74CFF03
:103E90004FF4FA7000F056FE42F2107211491248C7
:103EA000FFF742FF114B20B100221A7023B05DF8DA
:103EB00004FB0122F9E700BF5E6D0008656D000894
:103EC000466C0008776D0008946D00081802002009
:103ED000A76D0008D66D0008BE6D0008DB6D0008F8
:103EE000E96D0008006E0008086E00084502002019
:103EF00010B541F2883215491548FFF715FF154CEA
:103F0000F8B141F2883214491448FFF70DFF2278C6
:103F100013490132D2B20020227001F0A8FB2378AD
:103F2000022B0CD900230F4A2370137001220E4B71
:103F30000E491A700E4841F28832FFF7F5FE002054
:103F400010BD0122074B20701A70F8E73B6C000887
:103F5000496C000846020020576C0008086E0008F3
:103F6000626C00084502002047020020466C0008F1
:103F70007A6C0008F7B5064600201F4C0090238895
:103F800001900A2B2CDD4FF4FA7000F005FD248817
:103F9000204600F031FC054660B32146FFF760FE85
:103FA0001649284601F0F8FBF8B109300DF1FF324F
:103FB000074610F9013B2C2B14D1684601F066FB33
:103FC000044690B10246791C304601F069FB0C486A
:103FD00001F0ACF800232846335500F045FCE0B270
:103FE00003B0F0BD02F8013FE2E7284600F03CFCD8
:103FF0000020F5E7FF20F3E77A1C0020246C00087E
:10400000004800402DE9F843044617481546884605
:104010001F4601F08BF8204601F0B6FB81B2204626
:10402000FFF716FE00246426DFF84090ADB2B9F821
:104030000010A94208D34046FFF712FE0A4801F0DB
:1040400075F80020BDE8F88301346420E4B200F084
:1040500079FD04FB0663BB42E9DD034801F066F825
:104060000120BDE8F88300BF004800407A1C002012
:10407000F8B506467D2000F0BFFB0546164801F066
:1040800083FB4FF4FA63C2B229461448FFF7BAFF24
:10409000044628B11249002001F0E9FA012415E094
:1040A0001049284601F078FB074688B10E4801F018
:1040B0006BFB32460D49384401F032FB32460C4965
:1040C000204601F0D4FA284600F0CEFB2046F8BD89
:1040D000284600F0C9FBE1E76A6B00088A6B00081C
:1040E000956B0008A76B0008AD6B0008B86B000863
:1040F000CC6B0008F8B506467D2000F07DFB054638
:10410000164801F041FB42F21073C2B2294614482E
:10411000FFF778FF044628B11249002001F0A7FA02
:10412000012415E01049284601F036FB074688B106
:104130000E4801F029FB32460D49384401F0F0FAEF
:1041400032460C49204601F092FA284600F08CFBDA
:104150002046F8BD284600F087FBE1E7166B000813
:104160002F6B0008396B00084B6B0008516B00087F
:10417000B86B00085B6B000870B50C24154D164E2B
:104180004FF47A7229463046FFF7CEFDC8B942F2A5
:10419000107212491248FFF7C7FD42F210720F4920
:1041A0001048FFF7C1FD42F210720C490E48FFF7AC
:1041B000BBFD0E48FFF79EFFBDE870400C48FFF7BF
:1041C00057BF4FF47A70013C00F0BCFC14F0FF04C0
:1041D000D6D1DCE7DA6B0008E56B0008466C000816
:1041E000F06B0008F96B0008156C0008180200203D
:1041F0002C02002013B5302000F0FEFA04461448CB
:1042000001F0C2FA4FF47A73C2B221461148FFF7A7
:10421000F9FE28B11049002001F029FA012011E02F
:104220000E49224601F023FA0D49204601F0B4FA66
:1042300050B101AA0B4901F073FA204600F014FBBB
:104240009DF8040002B010BD204600F00DFBE5E72C
:10425000DC6A0008F06B0008E76A0008F86A0008EA
:10426000086B00080E6B000837B5302000F0C4FA68
:104270000446154801F088FA4FF4FA63C2B22146A9
:104280001248FFF7BFFE054628B11149002001F092
:10429000EEF9012012E00F49204601F07DFA78B1D5
:1042A00001AA0D4901F03CFA22460C49284601F0CA
:1042B000DEF9204600F0D8FA9DF8040003B030BDC6
:1042C000204600F0D1FAE4E77D6A00088C6A000815
:1042D0009C6A0008B46A0008C16A0008D16A000834
:1042E000F7B51446074611480E4601F04DFA0A3458
:1042F0000444A4B2204600F07FFA054688B1334654
:104300000A4A2146009701F0D7F94FF4FA620849AA
:104310002846FFF709FD284600F0A6FA002003B062
:10432000F0BD044901F0A3F90120F8E7886C00080A
:10433000466C00089F6C00082DE9F041804621483A
:104340000F4601F021FA00EB47050A35ADB22846C9
:1043500000F052FA0446781D400000F04DFA06467F
:1043600000B934B33A463146404600F0EFFA3346DE
:10437000154A2946204601F09FF9FFF775FF28B935
:1043800041F2883211491248FFF7CEFC204601F075
:10439000FBF9012182B22046FFF7A2FF054640B992
:1043A000304600F061FA204600F05EFA2846BDE88B
:1043B000F081304600F058FA204600F055FA012509
:1043C000F4E700BF886C00082E6C0008576C0008EA
:1043D000086E000800B50D488FB001F0D5F90F2820
:1043E00002D80A48FFF744FE084B094A322101A8C7
:1043F00001F062F901A801F0C7F9012182B201A818
:10440000FFF76EFF0FB05DF804FB00BF2C02002029
:10441000276D000810B590B00446FFF7EBFE084A80
:1044200003463221009403A801F046F903A801F0E5
:10443000ABF9012182B203A8FFF752FF10B010BD03
:10444000096D00082DE9F04104464FF4006000F0CA
:10445000D3F90646E8B1FFF78DFD1FFA80F805464F
:10446000B8F1000F12D01E4F334602461D490020FE
:1044700001F0FDF82A463146384601F011F91A4B91
:10448000A3F8008000237B55FFF7F6F9304600F0D3
:10449000EBF9164D297859B11548FFF74DFF012268
:1044A000144B1870144B1A7000232B70BDE8F08168
:1044B0003C22B4FBF2F302FB1343012B01D1FFF7C3
:1044C00017FD4FF41672B4FBF2F302FB1343012BFA
:1044D00004D12046BDE8F041FFF79CBFBDE8F08164
:1044E0009A200020C86C0008982000204C02002070
:1044F0004F0300204D0200205004002000B59BB067
:104500000346084A642101A801F0D6F801A801F089
:104510003BF9012182B201A8FFF7E2FE1BB05DF872
:1045200004FB00BF1B6D000800F02AB908B5FFF7B7
:104530008DFB024A13680133136008BD4802002056
:1045400010B5FEF71FFD4FF48030FEF73BFDFEF780
:1045500029FE0128044624D10020FEF771FD002029
:10456000FEF782FD4FF48060FEF774FD0220FEF737
:1045700001FC1020FEF708FC4FF480304FF4E011EE
:10458000FEF73CFD2046FEF743FD3920FEF7F6FD21
:104590000028FAD00220FEF741FDFEF749FD082869
:1045A000FBD110BD4FF44070FEF7EABA08B5FFF733
:1045B000C7FFFFF7F7FF00F0A9FA214800F08EFBD4
:1045C000204B21491A68002001F051F81F4800F0E3
:1045D00085FBFFF7CFFB43F6982000F0DDF9FFF7EE
:1045E000CBFDFFF701FC00F0C1F8194A0121322090
:1045F00000F0BCFA00F0F2FA164A01214FF47A708A
:1046000000F014FB00F04AFBFFF710FB124E134CB6
:10461000134D3068FFF716FFFFF718FB2378012BC7
:10462000F7D100202946207001F021F843F69820A8
:1046300000F0B2F9FFF7C2FBFFF7D6FBE9E700BFD6
:104640000038014030000020196E0008004800408A
:10465000294500082D450008480200204702002097
:104660002E6E0008F8B506790446012E02D0022EFF
:1046700027D0F8BDC578471D043DEDB22A4639461E
:10468000314801F00DF8314B1D700523E370032311
:1046900023712F4B1B7893B1022363710023621E99
:1046A00012F8011F0B44BA42DBB2F9D1A371072201
:1046B0002146284800F03AFC274B1D70F8BD667172
:1046C000ECE7264D2A7802B3131DC3700523244955
:1046D0000371184400F0E4FF00231A4629780431DE
:1046E000581CDBB299420BDAE25400232A782B7073
:1046F0000632D2B22146BDE8F840164800F016BC9A
:10470000E35C1A44D2B20346EAE70623C3700423EB
:10471000144903710B78012B14D10D480A700078ED
:10472000002818BF334663710F4BA01D1B78A3717F
:10473000631E13F8011F0A449842D2B2F9D1E27104
:104740000822D7E74271EFE74F0300205104002011
:104750004D020020003801404C0200204F04002090
:104760004E02002050040020450200205A22034B34
:104770001A70A5225A700A229A70704710300020D1
:1047800038B50F4D2A7882B100210B460D4C013A05
:1047900088B2904201F1010108DB225C9A4209D102
:1047A0000848FFF75FFF00232B7038BD205C0344EF
:1047B000DBB2EDE70449002000F059FFF3E700BF4A
:1047C0004E030020103000203B6E000803460244D8
:1047D000934200D1704703F8011BF9E708B50C229A
:1047E00000210348FFF7F2FF0122024B1A7008BDB7
:1047F000531C0020521C002038B5174B04461B7870
:104800000BB9FFF7EBFF64B1C4F34723C4F308040B
:104810000CB10133DBB200241049C3F10C00844217
:1048200001DB002038BD11F8012F1AB99A4205DAD0
:104830008D5C0DB10134F2E70132F7E7FAD10022C5
:10484000074921449A4203D1064800EB442038BD71
:104850008B540132F6E700BF521C0020521C00208E
:10486000531C00205204002010B50C4B1B781BB9C0
:10487000FFF7B4FF012010BD094BC01AB0F5C05FAF
:10488000F8D200231C46074A400A115C10448B42B0
:1048900001DB002010BDC4540133F8E7521C002096
:1048A00052040020531C0020C3B2A3F13000C0B258
:1048B00009280FD9A3F16102052A03D8A3F15700F3
:1048C000C0B27047A3F14102052A02D8A3F1370014
:1048D000F6E70020704700F00F03092B4FEA101095
:1048E00094BF30333733092894BF303037300B70E2
:1048F00010700020704710B5044600F045FF0128F5
:104900000CD994F90000FFF7CFFF0001C1B294F970
:104910000100FFF7C9FF0843C0B210BD002010BD61
:10492000CB0770B50FD404464908561E00EB41056D
:10493000AC4201D1002070BD2046FFF7DCFF0234FD
:1049400006F8010FF4E74FF0FF3070BD2DE9F34199
:104950000D4616460C46471E01EB4208444505D15C
:10496000002005F8160002B0BDE8F0810DF1070245
:104970000DF1060117F8010FFFF7ADFF023440B942
:104980009DF8073004F8023C9DF8063004F8013C1D
:10499000E4E74FF0FF30E6E770B5054600246426F3
:1049A00001346420A4B200F0CDF806FB04F3AB425E
:1049B000F6D970BD10B50820FEF7C8F9D0B10E4C7D
:1049C0000820FEF7D1F920460021FEF7A9F9626818
:1049D0000A4BC2F5007292B209490A481A8000F0E7
:1049E0005FFE4FF40073204663600121BDE8104074
:1049F000FEF796B910BD00BF1C00024098200020B1
:104A0000103100209A20002001EB4202401A91420E
:104A100000D17047435A21F8023BF8E770B50C46C5
:104A200001EB4205461AAC4206EB040000D170BD12
:104A300034F8021BFEF7F2F9F5E72DE9F84F80464E
:104A40004FF4006089461746FFF7D6FE0646002859
:104A500059D008F17845B5F5003F54D2C5F3480A5E
:104A6000CAF50074A4B2BC4228BF3C464FF6FF7B97
:104A7000FEF7A2F925F47F7525F0030505F1006521
:104A80004FF4007231462846FFF7BEFF002306EBC5
:104A90004A0A9AB2944203D822464946404611E057
:104AA00001330AEB430232F8022C5A45F1D0284672
:104AB000FEF7D0F900239AB2944217D84FF400724F
:104AC00031462846FFF7AAFFA74205F5806513D0B7
:104AD0003F1BBFB2B7F5007F09EB4409A0444FF07C
:104AE000000A3C4628BF4FF40074C9E739F8132088
:104AF0002AF813200133DEE7FEF768F93046BDE8F7
:104B0000F84FFFF7B1BEBDE8F88F00004FF47A729E
:104B1000094B1B68B3FBF2F3013BB3F1807F09D271
:104B2000F021064A5360064B83F82310002393605C
:104B300007231360704700BF3000002010E000E042
:104B400000ED00E0024B18601A68002AFCD17047A3
:104B500010390020034B1A6812B11A68013A1A6022
:104B6000704700BF10390020FFF7F4BF30B5194D72
:104B7000194B400085B084B228469A605C60597039
:104B8000FEF728FB01210220FEF7D4FA48F69F43E6
:104B9000ADF80840002401A92846ADF80430ADF86E
:104BA0000640ADF80A40FEF7F9FB012228461146FF
:104BB000FEF753FC1D238DF800300D238DF80130D6
:104BC000012368468DF802408DF80330FDF7E2FFBF
:104BD00005B030BD00040040601C002010B5054C3D
:104BE00001212046FEF746FC2046BDE81040012189
:104BF000FEF71EBC0004004010B501210948FEF775
:104C00002EFC012807D1084C617811B90548FEF740
:104C10000FFCA3689847BDE8104001210148FEF74A
:104C200029BC00BF00040040601C00201FB51A4BC7
:104C3000400084B24FF080409A605C605970FEF78B
:104C4000C9FA01210846FEF775FA48F69F43ADF808
:104C50000840002401A94FF08040ADF80430ADF8C1
:104C60000640ADF80A40FEF799FB01224FF0804064
:104C70001146FEF7F2FB1C238DF800300C238DF853
:104C80000130012368468DF802408DF80330FDF7AE
:104C900081FF04B010BD00BF6C1C002001214FF04B
:104CA0008040FEF7C5BB000010B501214FF08040E9
:104CB000FEF7D5FB012808D1074C617819B94FF0F0
:104CC0008040FEF7B5FBA3689847BDE8104001217E
:104CD0004FF08040FEF7CEBB6C1C002070B58B4BB4
:104CE00092B09842044656D1012144F20D00FEF7DD
:104CF00015FA01210846FEF705FA182303258DF859
:104D000007304FF4007301A98148ADF804308DF8E5
:104D10000650FEF7BFF804238DF807304FF4806388
:104D200001A97B48ADF804308DF806504FF4807629
:104D3000FEF7B0F8102301A976488DF807308DF8FA
:104D40000650ADF80460FEF7A5F831467148FEF74D
:104D5000F5F84FF4165303930C2300250DEB0301D4
:104D60002046ADF81630ADF81850ADF81050ADF83B
:104D70001250ADF81450FEF781FB25238DF8083052
:104D8000092301228DF809308DF80A508DF80B2087
:104D900040F225516DE0604B984276D101210846E2
:104DA000FEF7B0F901210520FEF7B8F901214FF413
:104DB0000030FEF7BFF918238DF8073004230325D0
:104DC0000DEB03015248ADF804308DF80650FEF7A4
:104DD00061F848238DF80730082301A94C48ADF845
:104DE00004308DF80650FEF755F84FF41653039330
:104DF0000C2300250DEB03012046ADF81630ADF86D
:104E00001850ADF81050ADF81250ADF81450FEF730
:104E100035FB4248FDF7ECFE414B07A90793414B98
:104E20003E4808934FF400730A9380230C93202389
:104E30000F934FF48053099510930B950D950E9594
:104E40001195FDF74FFF01213448FDF769FF01225D
:104E500040212046FEF78CFB262301228DF80830E6
:104E60000A2340F224418DF809308DF80A508DF85C
:104E70000B202046FEF764FB02A8FDF78BFE012104
:104E80002046FEF751FB12B070BD274B9842F6D179
:104E900001210920FEF742F901214FF48020FEF79D
:104EA00049F9182303258DF807304FF4806301A9D1
:104EB0001848ADF804308DF80650FDF7EBFF0423D9
:104EC0008DF807304FF4006301A91248ADF80430A3
:104ED0008DF80650FDF7DEFF4FF4E13303930C230A
:104EE00000250DEB03012046ADF81630ADF8185043
:104EF000ADF81050ADF81250ADF81450FEF7BEFAF0
:104F000027238DF808300B233BE700BF0038014012
:104F100000080140000C0140004400406C000240C9
:104F2000044400401447002000480040F8B5204BDE
:104F3000054698420E4601F1FF3402F1FF3709D0D1
:104F40003E44B44228D140212846FEF722FB0028E7
:104F5000F9D0F8BD4FF480711648FDF7EDFF3E44DF
:104F6000B4420DD1124C40212046FEF712FB00281E
:104F7000F9D04FF48071BDE8F8400E48FDF7DEBF70
:104F800080212846FEF705FB0028F9D014F8011F00
:104F90002846FEF7F6FAE3E780212846FEF7F9FAFD
:104FA0000028F9D014F8011F2846FEF7EAFAC8E7EE
:104FB00000380140000C014008B54FF00070FDF7CB
:104FC000BBFEBDE8084000210148FDF7A9BE00BFB7
:104FD0008000024070B540F225511E48FEF7DFFA0E
:104FE000002832D01C4C40F225511A48FEF7F7FA3F
:104FF00023881848B3F5007F04BF00232380258849
:10500000FEF7C3FA154B58551A785A2A02D00023D6
:10501000238070BD2288013292B2022A228014D9E4
:105020005978A5290ED199780A290BD1D97802315E
:105030008A420AD100210A4D481CC9B2914205D3C7
:1050400008490A70002222801A7070BD5E5C6E549E
:105050000146F1E700380140781C0020144100208F
:10506000103000204E03002070B540F22441124859
:10507000FEF795FAF0B1114C0F48FEF786FA20467C
:105080000021FDF74DFE62680D4D0E4EC2F5007217
:1050900092B20D492846328000F002FB002233888C
:1050A0002046EA544FF4007301216360BDE870406C
:1050B000FDF736BE70BD00BF004400406C000240EA
:1050C0009A200020982000201447002010B540F2BC
:1050D00024411348FEF763FA044620B1BDE81040AE
:1050E0000F48FEF752BA40F225510D48FEF757FA25
:1050F000A0B10C4B0A481A88B2F5006F08BF1C809B
:105100001C88621C1A80FEF740FA074B40F22551BA
:105110001855BDE810400248FEF761BA10BD00BF47
:10512000004800407A1C002014390020064B10B5BE
:10513000984207D1054C002122880548FFF746FB1D
:105140000023238010BD00BF004800407A1C0020CF
:10515000143900200B460449884203D103491846FC
:1051600000F09EBA704700BF00480040143900208C
:105170000369C1688B4297BF826803F1FF33D2187D
:1051800002F1FF3294BF501A581A70472DE9F041CE
:10519000C76886680446F61B9642884615464068EE
:1051A00006D9384400F07CFA3D44E560BDE8F08162
:1051B00032463844AD1B00F073FA2A4608EB06016C
:1051C000606800F06DFAF0E72DE9F843064689467D
:1051D00017464FF00008C5683469B368A54228BF78
:1051E000E418013C621B5C1BBC4228BF3C46944255
:1051F00028BF1446706849462844224600F050FAF9
:10520000B36825449D4208BF00253F1BA044A1442C
:10521000F560E1D14046BDE8F8830000032310B5F6
:10522000104C114A23616361104BA261E3614FF49A
:10523000806322660E4A2362626600231022A36204
:105240006362E3622367E3666367A2660949E01D60
:1052500000F092FA0849204600F08EFA2023A3714C
:1052600010BD00BF944700204C6E00088C1C00202D
:105270007C1C0020556E0008596E0008F8B51823F4
:10528000174C00FB033503FB00402544C46A0F465E
:10529000012C164611D003D3022C1BD000240AE0A7
:1052A0002846FFF765FFB04205D332463946284607
:1052B000FFF76CFF34462046F8BD2846FFF758FF3D
:1052C0008642344628BF0446394622462846FFF720
:1052D0005DFFF0E72846BDE8F840FFF775BF00BF67
:1052E00094470020F8B50B4B054693F900300E4665
:1052F00017460BB9FFF792FFEFF311844FF020012F
:1053000081F311883A4631462846FFF7B7FF84F308
:105310001188F8BD94470020826810B504464068A3
:10532000531C834205D820688154A360E36801338D
:10533000E360A26863689A420CD121682069FFF794
:10534000D1FFA368984203D04FF0FF33E36010BD54
:105350000023A36010BD00002DE9F84F90460646DB
:1053600089460A4601279A460A9C0B9B42451CD255
:10537000574538BF574613F0010B11D184B19B0735
:1053800017D5BAF1000F0CBF30252025A74207D250
:1053900029463046FFF7C0FFF368013C002B0ADACC
:1053A000F368002B09DABDE8F88FB2FBF8F2013799
:1053B000DCE72025EAE7002CE8D10125BAF1010F4E
:1053C00004D90AF1FF3A08FB05F5F7E7B9FBF5F355
:1053D0009845F8D9DFF848A0B9FBF5F330461AF93B
:1053E000031005FB1399FFF797FFF368002B03DB0E
:1053F000B5FBF8F5002DEFD1BBF1000FD3D05CB9B0
:10540000BDE8F88F20213046FFF786FFF368013CA6
:10541000002BC8DB002CC6D0A742F3D3C3E700BFE4
:10542000606E00082DE9F04F9BB00AAB0593402356
:10543000069300230E4615464FF00A090390079382
:105440000990089316F9011B39B9089B002B00F34A
:10545000018108981BB0BDE8F08F252940F0F68047
:1054600031464FF0000B91F90030481C2B2B1AD01D
:105470000EDC232B1AD000240E4611F9013BA3F1B8
:105480003000C0B2092814D809FB0434303CF3E7DB
:105490002D2B04D0302BEED14BF0020B01E04BF062
:1054A000010B0146DFE74BF0040BFAE74BF0080B6A
:1054B000F7E72E2B0FD14FF0000A701C064610F9AB
:1054C000011BA1F13007FFB2092F06D809FB0A130F
:1054D000A3F1300AF2E74FF0000A96F9001021F02C
:1054E0000400682802D116F9011FF8E7642928D0C2
:1054F00009DC582917D063291DD025290AD105A810
:10550000FFF70AFF06E0732900F0888007DC7029A6
:1055100000F094800136089B002B93DA95E77529FB
:1055200073D07829F6D1534629688DE81008081DF4
:105530002860102270E02B681A1D2A6093F9001071
:10554000DDE74FF0010829680F68081D87EAE77159
:105550002860A1EBE771092940DCD04538BFD0466F
:105560002CB1002F02DB1BF0040F00D0013C1BF01C
:10557000020F02D0BAF1000F04D01BF0010F01D1CD
:10558000002C3AD108990029C4DB002F38DA2D21EC
:105590007F4205A8FFF7C0FE08990029BADB0BF08F
:1055A000030102290ED1BAF1000F0BD1002C5CD0FF
:1055B000A04507D2302105A8FFF7AEFE0899013CAF
:1055C0000029F3DA08990029A4DB53460A22394658
:1055D0008DE8100805A8FFF7BFFE9BE791FBF9F1E6
:1055E00008F10108B7E7202105A8FFF795FE089903
:1055F000013C0029C6DB002CC7D0A045F3D3C1E78E
:105600001BF0040FC8D02B21C3E753460A22296898
:105610008DE81008081D28600968DBE72B681A1D53
:105620002A601C6814F9011B00293FF473AF05A818
:10563000FFF772FE089B002BF4DA6BE729680B1D5D
:105640002B60002301930823009372E705A8FFF75E
:1056500063FE60E7079A1AB10AA90398FFF742FEB2
:10566000089B079A13440893F3E60024ADE70EB4B1
:1056700003B503AB53F8041B02AA42F8043DFFF73D
:10568000D1FE02B05DF804EB03B070470A2200219E
:1056900000F030B9014B1868704700BF340000209B
:1056A00010B5431E0A44914200D110BD11F8014BC0
:1056B00003F8014FF7E700000CB430B5174B0C1E90
:1056C0009DB01D6808DA8B234FF0FF302B601DB0B2
:1056D000BDE8304002B070474FF40273ADF81430AB
:1056E0000CBF234604F1FF33049307934FF6FF7377
:1056F00002900690ADF81630209A21AB02A92846F8
:10570000019300F08DF9431CBCBF8B232B60002C50
:10571000DDD00022029B1A70D9E700BF34000020C0
:105720000EB44FF4017230B59CB01FAC54F8045B5A
:10573000ADF814200290069000F026F80B4B039071
:105740000B9300230F9314934FF6FF7307900848B1
:10575000ADF816302A46234602A90068019400F0ED
:10576000ADFA1CB0BDE8304003B070477557000873
:105770003400002000207047034611F8012B03F885
:10578000012B002AF9D17047034613F8012B002A98
:10579000FBD1181A01387047F0B5037833B10346CE
:1057A00018465E1C1B7833B91846F0BD0B78002BE9
:1057B00018BF0020F0BD4D1E441E15F8012F002A11
:1057C000F3D014F8017F33469742F6D0E8E72DE98D
:1057D000F84F8046894692461F468B465D460A989A
:1057E00015F8014B00F09CF82044467816F00806A6
:1057F0000BD12D2C0BD101262C780BF1020567B1B2
:10580000102F14D1302C0AD011E0AB46E6E72B2C38
:1058100004BF2C780BF10205F1E7302C27D12B784F
:1058200003F0DF03582B4BD110276C780235002E84
:105830000CBF6FF000414FF000410022B1FBF7FEBA
:10584000104607FB1E1CA4F13003092B11D81C467F
:10585000A7421DDD531C07D0864516D301D1A445B0
:1058600013DB012200FB074015F8014BEBE70A2789
:10587000DDE7A4F14103192B01D8373CE8E7A4F197
:105880006103192B04D8573CE2E74FF0FF32EBE7F6
:10589000531C08D122230846C8F80030BAF1000F83
:1058A00007D1BDE8F88F06B14042BAF1000F0CD025
:1058B00022B1013DCAF80050BDE8F88F4D46F9E726
:1058C0003024002FB3D10827B1E7BDE8F88F0000DE
:1058D00037B5064C064D2468246A002C08BF2C46B8
:1058E0000094FFF774FF03B030BD00BF3400002008
:1058F00098000020084B37B51C68084D236A002B20
:1059000008BF2B46009313460A4601462046FFF780
:105910005EFF03B030BD00BF3400002098000020BF
:10592000D0F8EC0070470000044B054A1B681B6A66
:10593000002B08BF1346D3F8EC007047340000205A
:105940009800002082B001B901A942B14BB113788F
:105950000B601278101C18BF012002B0704710466F
:10596000FBE76FF00100F8E72DE9F0478E6882460B
:105970009E420C469146984635D88A8912F4906F1B
:1059800031D00223256809696F1A656905EB450561
:1059900095FBF3F508F101033B449D4238BF1D46DA
:1059A000530531D5294600F047FF064650B90C2370
:1059B000CAF80030A3894FF0FF3043F04003A381C1
:1059C000BDE8F0873A462169FFF76AFEA38923F410
:1059D000906343F08003A38126613E4426604646DF
:1059E0006561ED1BA560464528BF464649463246DF
:1059F000206800F0BBFEA36800209B1BA360236807
:105A00001E442660BDE8F0872A4600F073FF064674
:105A10000028E1D12169504600F0C2FEC7E700002E
:105A20002DE9F04F9DB003938B8980461C060D46EF
:105A300016460FD50B696BB9402100F0FDFE2860BA
:105A4000286128B90C23C8F800304FF0FF30C4E0BB
:105A500040236B610023099320238DF829303023E4
:105A60004FF0010B8DF82A3037463C4614F8013BC5
:105A7000002B3CD1B7EB060A0BD0534632462946E1
:105A80004046FFF771FF013000F0A280099B5344AC
:105A900009933B78002B00F09B8000234FF0FF32EE
:105AA00004930793059206938DF853301A930522B9
:105AB0002178504800F04CFE671C049BD8B9D906E9
:105AC00044BF20228DF853201A0744BF2B228DF8A3
:105AD000532022782A2A16D000210A20079A274626
:105AE0003B780134303B092B50D9C9B111E0252B4B
:105AF000C0D02746B9E73F4A3C46801A0BFA00F06F
:105B000018430490D3E7039A111D12680391002AE9
:105B100001DB079204E0524243F002030792049330
:105B20003B782E2B0DD17B78791C2A2B32D1039B0D
:105B300002371A1D1B680392002BB8BF4FF0FF33CA
:105B400005932D4C03223978204600F001FE38B130
:105B50004023001B03FA00F0049B01370343049326
:105B60003978062225487E1C8DF8281000F0F0FDBB
:105B7000002835D0224BFBB9039B073323F00703E2
:105B800008330393099B4B4409936DE700FB0232F2
:105B90000121A4E700230A24184605930F463A780A
:105BA0000131303A092A03D9002BCAD00590C8E741
:105BB00004FB00200123F1E703AB00932A46114BBD
:105BC00004A94046AFF30080B0F1FF3F8146D9D130
:105BD000AB895B063FF539AF09981DB0BDE8F08F82
:105BE00003AB00932A46074B04A9404600F032FA63
:105BF000EAE700BF786E00087E6E0008826E00083B
:105C0000000000006959000838B54B1C144603D148
:105C10004FF0FF35284638BD9389CDB223F02003DD
:105C20009381536B52688BB1A36B9A4208DA236855
:105C30005A1E226003F8015C636801336360E9E780
:105C4000214600F03FFD0028F1D0E1E721692368FB
:105C500051B1994208D213F8011C8D4204D1013B85
:105C6000013223606260D5E7E36304F144036363B8
:105C70000323A3632346226403F8465F23600123C2
:105C8000DCE710B50C46496B69B104F14403994255
:105C900001D000F085FD0020236C6063636013B1C8
:105CA000E36B236010BD23694FF0FF3023600023B6
:105CB0006360A38943F02003A38110BD2DE9F04F59
:105CC000ADF5257D0193002306460C4692460A2732
:105CD000469347939F4B0DF10C08A2939E4BDFF820
:105CE0007C92CDF82081A3939AF80030002B00F02D
:105CF0002F81FFF719FE9AF800B05844437813F04B
:105D0000080343D1BBF1250F0AF1010540F099804A
:105D1000459343939AF801302A2B03D110230AF1BB
:105D2000020543932978AA46A1F13002092A05F118
:105D3000010541D90322894800F00AFD38B1A0EBE2
:105D400009030120AA469840439B184343909AF8C0
:105D500000300AF10105672B4AD8652B80F0B78027
:105D6000472B2FD8452B80F0B280002B00F082808B
:105D7000252B66D003234497499345E04799013387
:105D80000131479161682360013961606368002BCC
:105D90000BDDFFF7C9FD23681978084441780D072A
:105DA000ECD40AF10105AA469EE7A39B21463046A2
:105DB00098470028EDD0F4E7459B07FB0313303BE1
:105DC0004593AFE75B2B61D00CD8582BD2D1439AC7
:105DD00042F400724392102244926F2BB4BF03230B
:105DE000042310E0632B5CD0642BC3D14497F4E709
:105DF000702B42D01DD86E2B59D043D8692BB9D106
:105E000000234493032349936368002B61DD439B84
:105E100059066FD5499B022B7CDC01AB224643A976
:105E2000304600F037FA012800F092800228BAD1FB
:105E30001DE0752BDAD0782BC9D0732B9AD10223B1
:105E4000E1E76368002B0CDD23681A7893457FD166
:105E5000013362682360479B013A013362604793D4
:105E6000A1E7A39B2146304698470028ECD04698EE
:105E7000002863D14FF0FF3066E0439A42F02002E1
:105E80004392A4E7082344930423BCE729464046F1
:105E900000F05AFB439B054643F040034393012324
:105EA000B1E7439B43F0400343930023ABE7439A9E
:105EB000D0063FF578AF12F0010F019A479B02F12F
:105EC00004010191126814BF138013606BE705236E
:105ED00099E7A39B214630469847002897D0C6E70C
:105EE000479A013247926268013A002A62600ADDED
:105EF00001332360FFF718FD23681A7810444278B5
:105F00001207EDD486E7A39B214630469847002828
:105F1000F0D0ACE7042B06DC01AB224643A93046A7
:105F200000F01CFA7FE70E4B002B3FF43CAF01ABB7
:105F3000224643A93046AFF3008074E7A38913F0EB
:105F4000400F18BF4FF0FF300DF5257DBDE8F08FF5
:105F50004698F9E7095C0008835C00087E6E00083B
:105F6000000000002DE9F04791461F468A680B6942
:105F700006469342B8BF1346C9F8003091F8432053
:105F80000C46DDF8208012B10133C9F800302368D7
:105F9000990642BFD9F800300233C9F800302568AD
:105FA00015F0060507D104F1190AE368D9F80020B5
:105FB0009B1A9D422ADB94F843302268003318BFB5
:105FC000012392062FD404F1430239463046C047DC
:105FD000013022D02368E56803F00603042B18BFC4
:105FE0000025D9F800204FF0000908BFAD1AA368BA
:105FF000226908BF25EAE5759342C4BF9B1AED18D4
:106000001A344D451BD10020BDE8F08701235246CC
:1060100039463046C047013003D14FF0FF30BDE86C
:10602000F0870135C1E73020E11881F843005A1CA0
:1060300094F845102244023382F84310C3E7012349
:10604000224639463046C0470130E6D009F1010901
:10605000D7E700002DE9F04317460A7E85B06E2A87
:10606000984606460C460C9B01F1430E00F0BC809E
:106070001AD8632A2ED00AD8002A00F0C880582ADD
:1060800000F08A8004F1420584F842202AE0642A64
:1060900001D0692AF6D121681A6811F0800F23D047
:1060A000111D1960136827E0732A00F0B48008D826
:1060B0006F2A2AD0702AE5D10A6842F020020A60CD
:1060C00003E0752A21D0782ADCD178226F4984F840
:1060D000452064E01A6801F14205111D196013683A
:1060E00084F842300123A3E011F0400F02F10401D3
:1060F0001960D7D0B2F90030002B03DA2D225B42B1
:1061000084F8432062490A2217E02068196810F0D9
:10611000800F03D0081D18600B6806E010F0400FD8
:1061200001F104001860F7D00B886F2A14BF0A220F
:1061300008225749002084F843006568002DA560B7
:10614000C0F29C80206820F004002060002B3FD12A
:10615000002D40F095807546082A0BD12368DA0798
:1061600008D5236962689A42DEBF302305F8013CF6
:1061700005F1FF35AEEB05032361CDF800803B460A
:1061800003AA21463046FFF7EDFE013055D14FF00E
:10619000FF3005B0BDE8F08381F845203C49226816
:1061A000186812F0800F00F104051D6001D003682B
:1061B00002E05506FBD50388D00744BF42F0200219
:1061C00022601BB9226822F0200222601022B1E76F
:1061D0007546B3FBF2F002FB1033CB5C05F8013DD2
:1061E00003460028F5D1B7E708681A6810F0800F59
:1061F000496904D0101D18601368196007E010F099
:10620000400F02F1040018601368F6D019800023D3
:1062100075462361B1E71A68111D196015680021E0
:106220006268284600F094FA08B1401B6060636819
:106230002361002384F843309FE723692A463946C7
:106240003046C0470130A2D023689B0707D5002500
:1062500004F11909E368039A9B1A9D4205DBE06883
:10626000039B9842B8BF184693E701234A46394634
:106270003046C04701308AD00135EBE7002BA7D16B
:106280000B7804F1420584F8423065E79A6E000805
:10629000896E00082DE9F04115468A6880460C4653
:1062A00032B98A69002A0CBF01224FF0FF328A609E
:1062B00000262268D1065FBF1A68111D1960176891
:1062C000A369DBB1012B07D12B6862691B78D35C12
:1062D000A3B9002E31D106E0022B07D0002E2CD11D
:1062E000A369012B29D10120BDE8F081FFF71CFB38
:1062F0002B681B78184443781B07EFD423680136BA
:10630000DA065EBF2B681B783B702A686B6802F167
:1063100001022A60A26803F1FF3302F1FF326B60D1
:1063200058BF0137A26042B1002BC9DCD4F88031DC
:106330002946404698470028C2D0236813F010032E
:1063400005D1E2680132E260A26902B13B702369C3
:1063500000201E442661BDE8F08100002DE9F04FC9
:106360000C469A46744B87B08346164693E807005E
:1063700003ABA76883E80700704BA169704A04F17A
:106380001C09032918BF1A467B1EB3F5AE7F84BFD4
:1063900040F25D13A360236888BF6FF4AE7543F4C9
:1063A0005063236098BF00274B464FF000080092CF
:1063B00088BF7F193168019303AB53F8280002228C
:1063C000097800F0C5F9019B28B3B8F1010F56D147
:1063D00062682AB908226260226842F40072226070
:1063E000226822F4A0622260A268511EA16092B1CC
:1063F00032685D1C511C316012781A707368013B61
:10640000002B736006DCD4F880313146584698473B
:10641000002877D12B4608F10108B8F1030FC9D144
:1064200062680AB90A226260626846496069891A2C
:10643000019300F089F8019B4FF000081D46A36806
:10644000002B39D0316860690A78805C002833D02D
:10645000302A226821D110051FD508F1010817B193
:106460000133013FA3607368013B002B73601CDDA7
:10647000336801333360A368013BA360DFE7B8F101
:10648000020FB1D1226802F4C061B1F5007FC2D120
:10649000102142F480726160A5E722F4106222604C
:1064A0000B78013505F8013CDDE7D4F88031314641
:1064B000584698470028DED02368D9050CD54D45AD
:1064C00008D915F8011C6F1ED4F87C3132465846A5
:1064D00098473D464D452CD0226812F010021ED13F
:1064E0002A70636849465846009EB0472268DAF829
:1064F000003012F0200F08D01A1DCAF800201B68C7
:10650000186009E04FF00008D6E7D207F4D51A1D4D
:10651000CAF800201B681880E3680133E36000209C
:10652000A5EB0905A84425694544256107B0BDE8E8
:10653000F08F0120FAE700BFAC6E0008A1660008EA
:10654000D1580008C86E000870B50B78441E5E2B49
:1065500013BF4A1C8A1C4B78002108BF012100F19F
:10656000FF0504F8011FA542FBD113B9013A1046FB
:1065700070BD81F001041146C4540D784A1C2D2DC4
:1065800006D05D2DF3D00DB90A46F0E72B46F2E7B1
:106590004E785D2EFAD0B342F8DC023101339E42D0
:1065A000C454FBDCE9E72DE9F04780468946924672
:1065B0001E460F463D46089815F8014BFFF7B0F907
:1065C0002044437813F008030AD12D2C0AD101236B
:1065D0002C78BD1C5EB1102E13D1302C09D010E0E8
:1065E0002F46E7E72B2C04BF2C78BD1CF2E7302C9C
:1065F00025D12A7802F0DF02582A4AD110266C7879
:1066000002354FF0FF31B1FBF6F1002706FB01FE2A
:1066100038466FEA0E0EA4F13002092A11D814464A
:10662000A6421DDD002F18DB814216D301D1A645FD
:1066300013DB012700FB064015F8014BEBE70A26A8
:10664000DFE7A4F14102192A01D8373CE8E7A4F1B9
:106650006102192A04D8573CE2E74FF0FF37EBE715
:10666000002F09DA22234FF0FF30C8F80030BAF1CA
:10667000000F07D1BDE8F08703B14042BAF1000F27
:106680000CD027B1013DCAF80050BDE8F0874D4657
:10669000F9E73024002EB4D10826B2E7BDE8F08730
:1066A00037B5064C064D2468246A002C08BF2C46DA
:1066B0000094FFF778FF03B030BD00BF3400002026
:1066C000980000202DE9F0410C46496B04F1440389
:1066D00099421CD14FF4806100F0AEF818B94FF028
:1066E000FF30BDE8F0814FF48063A36394F8463037
:1066F000606380F8FF3394F8453000F2FD3043705A
:1067000094F84430037020600020BDE8F081A66B4F
:1067100077003A4600F0EEF805460028DFD000EB9F
:106720000608014632464046FEF7BAFFC4F800802C
:106730006563A763E8E749B1FF2A8BBF8A230A7024
:106740000360012088BF4FF0FF3070470846704754
:1067500010B5C9B202449042034601D1002010BDD9
:106760001C7801308C42F6D1184610BD884210B515
:1067700001EB020303D8421E99420CD110BD98428E
:10678000F9D28118D21AD34200D110BD13F8014DAD
:1067900001F8014DF7E711F8014B02F8014FEBE763
:1067A00038B50546002943D051F8043C0C1F002B96
:1067B000B8BFE41800F0D4F81E4A1368104633B985
:1067C000636014602846BDE8384000F0CAB8A342B0
:1067D0000BD921686218934201BF1A685B6852188E
:1067E000226063600460EDE713465A680AB1A24272
:1067F000FAD919685818A0420BD1206801445818DA
:1068000082421960DED110685268014419605A60F2
:10681000D8E702D90C232B60D4E7206821188A42DC
:1068200001BF116852680918216062605C60C9E7A5
:1068300038BD00BF8C20002070B5CD1C25F00305AD
:1068400008350C2D38BF0C25002D064601DBA9426A
:1068500003D90C233360002070BD00F081F8234A77
:106860001468214691B9224C23681BB9304600F0C8
:1068700067F820602946304600F062F8431C26D1B4
:106880000C233046336000F06CF8E4E70B685B1BC8
:106890001AD40B2B0FD90B60CC18CD50304600F01A
:1068A00060F804F10B00231D20F00700C31A1BD071
:1068B0005A42E25070BD8C420BBF63684B68136054
:1068C000636018BF0C46E9E70C464968CAE7C41C78
:1068D00024F00304A04205D0211A304600F030F81D
:1068E0000130CDD02560D9E770BD00BF8C200020DD
:1068F00090200020F8B5074614460E4621B91146EF
:10690000BDE8F840FFF798BF22B9FFF749FF2546D9
:106910002846F8BD00F026F884420FD921463846B3
:10692000FFF78AFF05460028F2D031462246FEF7DF
:10693000B7FE31463846FFF733FFE9E73546E7E76C
:1069400038B50023054C054608462360FCF750FE89
:10695000431C02D1236803B12B6038BD9420002072
:106960007047704751F8040C0028A0F10400BCBF28
:106970000B58C018704741542B434D44444F574E59
:106980004359433D25642C25642C25642C22255B2A
:106990003031323334353637383961626364656695
:1069A0004142434445465D220D0A0041542B434D6C
:1069B00044444F574E4359430041542B434D445296
:1069C0004D0041542B434D444745545F53494D4975
:1069D000440041542B434D445345545F444556496C
:1069E000434549440041542B434D444745545F417E
:1069F0004343444154410041542B434D4447455483
:106A00005F4C4F434154494F4E0041542B434D443A
:106A10005345544750533D0041542B434D44534537
:106A2000545F52455345540041542B434D44474510
:106A3000545F4353510041542B434D443438354245
:106A40004155443D0041542B4941503D0061636B29
:106A5000206F6B2C25640066696C6520646F776E0F
:106A6000206F6B0061636B206E6F74206F6B004151
:106A7000542B434D44524D3D25640D0A002B434990
:106A80004F545354415455533A20310041542B43F1
:106A9000494F545354415455530D0A0067657420AF
:106AA00043494F545354415455532074696D656F95
:106AB00075740A002B43494F545354415455533A6B
:106AC000002B43494F545354415455533A202564A5
:106AD000006765742061636B3A2573002B43535143
:106AE0003A32332C3939006765742063737120742E
:106AF000696D656F75740A00676574206373712032
:106B000061636B3A25730A002B4353513A002B43C0
:106B100053513A2564002B4347534E3A20312C30D1
:106B2000313233343536373839303132333400414D
:106B3000542B4347534E0D0A0067657420696D65F9
:106B4000692074696D656F75740A002B4347534E55
:106B5000002B4347534E3A20312C0067657420695F
:106B60006D656969643A25730A002B434349443AC9
:106B700020312C22393836383230304236323531F5
:106B80003043323030303635220041542B434349B4
:106B9000443F0D0A0067657420636369642074696B
:106BA0006D656F75740A002B43434944002B4343C2
:106BB00049443A20302C2200255B303132333435C1
:106BC000363738394142434445465D006765742095
:106BD00073696D69643A25730A002B435245473A3D
:106BE00020312C310041542B435245473F0D0A00C0
:106BF00041542B4353510D0A0041542B4347444306
:106C00004F4E543D312C224950222C22434D4E45AB
:106C100054220D0A0041542B43474143543D312C2B
:106C2000310D0A002B43494F54434D443A00424929
:106C30004E5F444154412C2C2573002B43494F5443
:106C400050494E473A204F4B0041542B43494F5433
:106C500050494E470D0A00434F4E4E454354204F76
:106C60004B0070696E67206661696C656420636FB4
:106C7000756E74203D2025640A0041542B4346550F
:106C80004E3D312C310D0A0041542B43494F5444A1
:106C900041543D302C25642C222573220D0A006DB1
:106CA000795F6D616C6C6F63206661696C656420EF
:106CB000696E20696F745F6F6E656E65745F736572
:106CC0006E645F7261770A00676574206F6E656E2F
:106CD000657420646174613A25642C25730A00731D
:106CE000656E6420617420636F6D6D61643A257315
:106CF0000A0067657420617420636F6D6D616420A4
:106D000074696D656F75740A006373712C2C25644A
:106D10003B636F756E742C2C256400696170696E1D
:106D2000666F2C2C25730069636369642C2C2573B2
:106D30000061636B20627566666572206973206E00
:106D4000756C6C006765742061636B3A25730A008B
:106D50006765742061636B3A4E554C4C0A003131C3
:106D6000323238360041542B43494F5450524F4928
:106D7000443D25730D0A006D54656275516D767A38
:106D800069715569307257466A7A384773433737A5
:106D90004C343D0041542B43494F544D4B45593DD4
:106DA000222573220D0A0041542B43494F5441556B
:106DB0005448494E464F3D222573220D0A00415446
:106DC0002B43494F54494E49543D222573222C22CE
:106DD0002573220D0A006364647A0041542B4349F1
:106DE0004F54494E49540D0A0041542B43494F54C6
:106DF000434F4E4E454354504152413D310D0A00E0
:106E0000434F4E4E4543540041542B43494F545336
:106E1000544152543D300D0A0053797374656D200E
:106E2000636C6F636B3A20257520487A0A0072659F
:106E3000736574206D363331310A00766572696688
:106E4000792073756D20666169640A005465726DFE
:106E5000696E616C005254540053454747455200D7
:106E60003031323334353637383941424344454680
:106E7000504F534958002E00232D302B2000686CB2
:106E80004C0065666745464700303132333435364D
:106E90003738394142434445460030313233343586
:106EA000363738396162636465660000CA6E00086F
:106EB000CD6E0008D06E0008412D46612D66383930
:106EC00030313233343536375D002B2D0030300011
:106ED000785800002020202020202020202828284A
:106EE0002828202020202020202020202020202092
:106EF00020202020881010101010101010101010DA
:106F000010101010040404040404040404041010F9
:106F10001010101010414141414141010101010196
:106F20000101010101010101010101010101011042
:106F3000101010101042424242424202020202026B
:106F40000202020202020202020202020202021013
:106F500010101020000000000000000000000000E1
:106F60000000000000000000000000000000000021
:106F70000000000000000000000000000000000011
:106F80000000000000000000000000000000000001
:106F900000000000000000000000000000000000F1
:106FA00000000000000000000000000000000000E1
:106FB00000000000000000000000000000000000D1
:106FC00000000000000000000000000000000000C1
:106FD00000000000000000000000000000000000B1
:106FE00000000000000000000000000000000000A1
:106FF0000000000000000000000000000000000091
:107000000000000000000000000000000000000080
:107010000000000000000000000000000000000070
:107020000000000000000000000000000000000060
:107030000000000078563412020406080000000028
:1070400001020304010203040607080910020020DC
:107050000000000000000000000000000102030426
:107060000607080900A24A043800002000000000BA
:10707000F46F000814700008D46F000800000000CE
:107080000000000000000000000000000000000000
:1070900000000000000000000000000000000000F0
:1070A00000000000000000000000000000000000E0
:1070B00000000000000000000000000000000000D0
:1070C000000000000000000000000000430000007D
:1070D00000000000000000000000000000000000B0
:1070E000000000000000000000000000430000005D
:1070F0000000000000000000000000000000000090
:10710000000000000000000000000000430000003C
:10711000000000000000000000000000000000006F
:10712000000000000000000000000000430000001C
:10713000000000000000000000000000000000004F
:1071400000000000000000000000000043000000FC
:10715000000000000000000000000000000000002F
:1071600000000000000000000000000043000000DC
:10717000000000000000000000000000000000000F
:1071800000000000000000000000000043000000BC
:1071900000000000000000000000000000000000EF
:1071A0000000000000000000000000003767000839
:1071B0004559000800000000D36E0008766E0008F4
:1071C000146C0008146C0008146C0008146C00089F
:1071D000146C0008146C0008146C0008146C00088F
:1071E000146C0008FFFFFFFFFFFFFFFFFFFFFFFF23
:1071F000FFFF000001004153434949000000000027
:10720000000000000000000000000000000000007E
:107210000000000000004153434949000000000005
:10722000000000000000000000000000000000005E
:0C723000000000000000000032547698BE
:00000001FF
