:020000040800F2
:100000000050002057010008550100084101000878
:100010003F0100082B010008170100080000000044
:1000200000000000000000000000000015010008B2
:100030001301000800000000110100080F01000872
:100040000D0100080D0100080D0100080D01000858
:100050000D0100080D0100080D0100080D01000848
:100060000D0100080D0100080D0100080D01000838
:100070000D0100080D0100080D0100080D01000828
:100080000D0100080D0100080D0100080D01000818
:100090000D0100080D0100080D0100080D01000808
:1000A0000D0100080D0100080D0100080D010008F8
:1000B0000D0100080D0100080D0100080D010008E8
:1000C0000D0100080D0100080D0100080D010008D8
:1000D0000D0100080D0100080D0100080D010008C8
:1000E0000D0100080D0100080D01000800000000CE
:1000F0000000000000000000000000000000000000
:1001000000000000000000005FF808F1FEE7704703
:10011000FEE7FEE7FEE71EF0040F0CBFEFF30880DA
:10012000EFF309807146BB4A10471EF0040F0CBF65
:10013000EFF30880EFF309807146B74A1047FEE7F6
:100140001EF0040F0CBFEFF30880EFF30980714637
:10015000B24A1047FEE7B2480047FEE7FEE7FEE777
:100160002DE9804887B0924B00AF1A6842F0010237
:100170001A6059688F4A0A405A601A6822F08472DD
:1001800022F480321A601A6822F480221A605A68B7
:1001900022F4FE025A604FF41F029A6000223A6174
:1001A0007A611A6842F480321A601A6802F40032E6
:1001B0007A613A6901323A617A691AB93A69B2F5F3
:1001C000A06FF2D11A6812F4003218BF01227A61CE
:1001D0007A69012A00F087804FF00061764A7748FB
:1001E0009160774991607749774A8242C0F0AD804B
:1001F0000020764A76498A42C0F0AC805968754A38
:1002000001F00C01042902D0082900F0A6807249EF
:10021000002511605B687149C3F30313C95C704E1C
:100220001368704CCB40A41B1360A410AC4200F3C5
:10023000A48000256C4E6D4CA41BA410AC4200F3AE
:10024000A180DFF8C491DFF8C4A1DFF8C481684E53
:1002500080224946504600F0F9F84FF48072494632
:10026000304600F019FA3378AA2B20D100252A460F
:1002700073687488DFF87CB105F1006101F52051E5
:10028000F960511CB960A9B28C4203EB05007ED81D
:1002900092B2A4EBC224002C09DD6410A2B255492D
:1002A00000F0D4F822465349F86800F037F9D8F83E
:1002B000003003F07F43B3F1006FC8D15523802293
:1002C0004B495046337000F029F94B4A4B4B1168AB
:1002D0000B40B3F1005FBAD1D8F80030126882F356
:1002E00008889847B3E7464A116841F01001116049
:1002F000116821F003011160116841F002011160E1
:100300005A685A605A685A605A6842F480625A6061
:100310005A6822F47C125A605A6842F4E8125A6011
:100320001A6842F080721A601A689501FCD55A6802
:1003300022F003025A605A6842F002025A605A6878
:1003400002F00C02082AFAD146E751F8044F42F8AD
:10035000044B4AE742F8040B4DE759685868C1F36B
:100360008341C40301F1020102D4264841434FE70F
:1003700058688003F9D41848F8E756F825309847AC
:10038000013553E756F825309847013556E74FF4C5
:10039000806259467B6000F059F84FF480625946FC
:1003A000F86800F0BBF805F50065BA687B6863E79C
:1003B000001002400000FFF800ED00E014000020F3
:1003C0000000000880070008000000201400002042
:1003D000382200201000002000127A0000000020C7
:1003E0004C0400084C0400084C0400084C040008AD
:1003F000141C0020281E0020002800080000FE2FEA
:100400000020024000093D00281C002000FF0008D9
:10041000042800085B0100085D0100085F01000876
:04042000610100086E
:10042400840700080000002014000020840700084E
:10043400000000000000000014000020382200200A
:080444000000000000000000B0
:10044C0001EB4202401A914200D17047435A21F805
:10045C00023BF8E700231946044A995401330E2B4A
:10046C00FBD10122024B1A70704700BF29220020D9
:10047C0028220020084BDA68D10709D4DA68520721
:10048C0008D4DB6813F0100F14BF0320042070474E
:10049C0001207047022070470020024010B504462E
:1004AC00FFF7E8FF012806D10CB9052010BDFFF7B6
:1004BC00E1FF013CF6E7002C08BF052010BD000051
:1004CC002DE9F047074688461646002441F6FE798A
:1004DC000E4DA3B29E4201D8BDE8F0874FF40050F8
:1004EC0038F813A0FFF7DAFF04280DD12B694FF46D
:1004FC00005043F001032B6127F814A0FFF7CEFF47
:10050C002B6903EA09032B610134E2E70020024066
:10051C002DE9F04F574B90461A7885B082468B46A2
:10052C0003930AB9FFF796FF0022534911F8013FD4
:10053C0033B101320A2AF9D112E00133042B03D072
:10054C00C85C0028F9D0F4E74C494D4F88188B54FF
:10055C0043708370C3705302FF180193029102D150
:10056C0005B0BDE8F08F0AF17844B4F5003FF7D23E
:10057C00C4F34809C9F50076464528BF4646414DA7
:10058C00414B24F47F746B6024F0030403F1883333
:10059C006B6004F100644FF4007239462046FFF79B
:1005AC004FFF002293B29E4203D832465946504622
:1005BC002AE04FF6FF714B4437F8133001328B426F
:1005CC00F0D04FF43020FFF769FF042812D12B69CB
:1005DC004FF4302043F002032B616C612B6943F024
:1005EC0040032B61FFF75AFF2B6923F00203DB0456
:1005FC00DB0C2B61002293B29E4202F1010217D850
:10060C004FF4007239462046FFF75AFFB04504F507
:10061C00806413D0A8EB0608B8F5007F0BEB460BF3
:10062C00B2444FF00009464628BF4FF40076B2E7BB
:10063C003BF813104B4427F81310DCE7114A1369ED
:10064C0043F080031361039B1B7823B905B0BDE80D
:10065C00F04FFFF7FFBE019B029A5B0AD15C0022B0
:10066C0002980344104691427FF77AAF98540132B6
:10067C00F9E700BF28220020282200202922002090
:10068C00140000200020024023016745844641EA03
:10069C00000313F0030349D1403A23D30B680360E2
:1006AC004B6843608B688360CB68C3600B690361E4
:1006BC004B6943618B698361CB69C3610B6A0362CC
:1006CC004B6A43628B6A8362CB6AC3620B6B0363B4
:1006DC004B6B43638B6B8363CB6BC3634030403199
:1006EC00403ADBD230320BD30B6803604B6843606B
:1006FC008B688360CB68C36010301031103AF3D232
:10070C000C3205D351F8043B40F8043B043AF9D2BF
:10071C00043208D0D2071CBF11F8013B00F8013B92
:10072C0001D30B8803806046704700BF082A13D39F
:10073C008B07B1D010F00303AED0C3F10403D21A6F
:10074C00DB071CBF11F8013B00F8013BA4D331F8C7
:10075C00023B20F8023B9FE7043AD9D3013A11F847
:10076C00013B00F8013BF9D20B7803704B784370D6
:08077C008B7883706046704722
:10078400000000000000000001020304060708093D
:0407940000A24A0471
:04000005080001618D
:00000001FF
