:020000040800F2
:10000000A0160020A5010008AD160008A5160008DE
:10001000A91600080D0200085B1900080000000086
:10002000000000000000000000000000B701000810
:100030001702000800000000BB0100083D1800087E
:10004000BF010008BF010008BF010008BF01000890
:10005000BF010008BF010008BF010008BF01000880
:10006000BF010008BF010008BF010008110200081D
:100070001302000815020008BF010008BF010008B4
:10008000BF010008BF010008BF010008BF01000850
:10009000BF010008BF010008BF010008BF01000840
:1000A000BF01000859190008BF010008BF0100087E
:1000B000BF010008BF010008BF010008BF01000820
:1000C000BF010008BF010008BF010008BF01000810
:1000D000BF010008BF010008BF010008BF01000800
:1000E000BF010008BF010008BF010008BF010008F0
:1000F000BF010008BF010008BF010008BF010008E0
:10010000000000000000000000000000BF01000827
:10011000BF010008BF010008BF010008BF010008BF
:10012000BF010008BF010008BF010008BF010008AF
:10013000BF010008BF01000800000000000000002F
:10014000BF010008BF010008BF0100080000000057
:10015000000000000000000000000000000000009F
:100160000000000000000000BF010008BF010008FF
:10017000BF010008000000000000000000000000B7
:1001800000000000BF010008DFF80CD000F02CF8E0
:1001900000480047851A0008A016002080F3088850
:1001A000704700000648804706480047FEE7FEE724
:1001B000FEE7FEE7FEE7FEE7FEE7FEE7FEE7FEE717
:1001C000DD18000889010008202A04DB203A21FA02
:1001D00002F00021704721FA02F3D040C2F1200260
:1001E0009140084319467047064C074D06E0E06809
:1001F00040F0010394E8070098471034AC42F6D36E
:10020000FFF7C6FF441B0008641B000800BFFEE7A1
:10021000704770477047704700BFFEE700200749EE
:10022000C8610748006940F00400054908610846B4
:10023000006940F040000861704700008012002013
:10024000002002400021074AD1610749096941F0B5
:100250000201054A116111464861096941F04001F6
:100260001161704780120020002002400022054BDF
:10027000DA61054A126942F00102034B1A610180FA
:1002800070470000801200200020024000200F492B
:10029000C96801F01001102907D10D49C96941F061
:1002A00002010B4AD16140F010000849C96801F011
:1002B0000401042907D10649C96941F00101044A32
:1002C000D16140F004000149C8607047002002403D
:1002D0008012002070B5044600F0FEF8054609E0E3
:1002E000601C38B124B100F0F7F8401BA04201D9DE
:1002F000032070BD0F48C06800F001000028EFD156
:100300000C48C06800F02000202801D10949C860CD
:100310000848C06800F01000102805D00548C068E3
:1003200000F00400042803D1FFF7B0FF0120E0E74C
:100330000020DEE7002002402DE9F04104460E4691
:100340000127002500BF2648007E012802D1022097
:10035000BDE8F08101202249087600BF206801280D
:1003600012D14CF25030FFF7B5FF88BBFFF756FFB4
:100370004CF25030FFF7AEFF07461A48006920F0F4
:1003800004001849086123E04CF25030FFF7A2FF47
:10039000F0B94FF0FF303060656812E02846FFF793
:1003A00051FF4CF25030FFF795FF07460D480069AA
:1003B00020F002000B4908610FB1356007E005F538
:1003C0000065D4E9011001EBC020A842E6D800BFC7
:1003D00000BF00200249087600BF3846B8E7000099
:1003E00080120020002002400348006940F0800095
:1003F0000149086100207047002002402DE9FE4FAE
:1004000005468B4617469846012600240020029098
:1004100000BF2448007E012802D10220BDE8FE8FE3
:1004200001202049087600BF4CF25030FFF752FF00
:10043000064686BB012D02D10120029006E0022D66
:1004400002D10220029001E00420029000241EE06C
:100450002201B946C24648465146FFF7B5FE80B272
:100460000190022000FB04B000900199FFF7FEFE0E
:100470004CF25030FFF72EFF06460B48006920F083
:1004800001000949086106B104E0601CC4B2029889
:100490008442DDDB00BF00BF00200249087600BFB8
:1004A0003046BBE780120020002002400748006968
:1004B00000F0800028B106480449486005484860BB
:1004C00001E0012070470020FCE70000002002400E
:1004D00023016745AB89EFCD0148006870470000F4
:1004E0002000002010B50848006840F010000649C0
:1004F0000860032000F05EF8002000F007F800F02C
:1005000019F8002010BD00000020024070B504461C
:10051000074800684FF47A71B0FBF1F5284601F006
:10052000A7F800222146501E00F005F8002070BDFB
:100530001C00002070472DE9F05F80460D461646EE
:10054000002701F0B5F8074639462A46334601F040
:100550000700C0F1070ABAF1040F02D94FF0040AEC
:1005600001E0C0F1070AD14600F1040ABAF1070F11
:1005700002D24FF0000A01E0A0F1030AD4464FF086
:10058000010A0AFA09FAAAF1010A0AEA020A0AFAAF
:100590000CFA4FF0010B0BFA0CFBABF1010B0BEA61
:1005A000030B4AEA0B042146404601F089F8BDE8F6
:1005B000F09F000000BF00F00702064B19684FF6DD
:1005C000FF031940044B0B4343EA0221014B19601E
:1005D00000BF70470CED00E00000FA05F8B50446D6
:1005E00000260025206800F48030B0F5803F75D1EA
:1005F0000027B148C06900F0805070B900BFAE4814
:10060000C06940F08050AC49C8610846C06900F03C
:100610008050009000BF00BF0127A848006800F488
:100620008070B0B9A548006840F48070A3490860A4
:10063000FFF752FF064606E0FFF74EFF801B6428D7
:1006400001D90320F8BD9D48006800F4807000289F
:10065000F2D09948006A00F44075002D6CD0A08853
:1006600000F44070A84267D09348006A20F44075B7
:100670000120010491FAA1F1B1FA81F1904A02EB53
:100680008101C1F8000400204FF4803191FAA1F1FA
:10069000B1FA81F102EB8101C1F8000486480562DC
:1006A00005F00100B8B3FFF717FF064608E0FFF7B3
:1006B00013FF801B41F28831884201D90320C1E732
:1006C0004020022191FAA1F1B1FA81F10843012100
:1006D000B1EB601F03D1784800681FE03CE0402088
:1006E000022191FAA1F1B1FA81F108430221B1EBA3
:1006F000601F02D17048006A10E04020022191FA88
:10070000A1F1B1FA81F108430421B1EB601F03D1DB
:100710006948406802E00FE06748406A40210222D1
:1007200092FAA2F2B2FA82F2114301F01F02012101
:10073000914008400028BAD05F48006A20F4407019
:10074000616808435C490862012F04D10846C0690A
:1007500020F08050C86100BF207800F0010038B15F
:100760005548006B20F00300A16808435249086314
:10077000207800F00200022807D14F48006B20F4D7
:100780004030E16808434C490863207800F00400D9
:10079000042807D14848006B20F440202169084311
:1007A00045490863207800F02000202807D14248FE
:1007B000006B20F01000E16908433F49086320689E
:1007C00000F40030B0F5003F07D13B48406820F40A
:1007D0008000A16B084338494860207800F0400051
:1007E000402807D13448006B20F02000216A0843DC
:1007F00031490863207800F00800082807D12E4806
:10080000006B20F44010616908432B49086320788D
:1008100000F01000102807D12748006B20F440009A
:10082000A169084324490863208800F40070B0F5EA
:10083000007F07D12048406820F40000E16A0843A7
:100840001D494860207800F08000802807D11A48B0
:10085000C06A20F4F870616A08431749C8622088AA
:1008600000F48070B0F5807F07D11348C06A20F48F
:100870007850A16A08431049C862208800F480506B
:10088000B0F5805F07D10C48006B20F48070216BBD
:10089000084309490863208800F40050B0F5005F60
:1008A00007D10548006B20F40070616B08430249D2
:1008B00008630020C6E600000010024000700040FF
:1008C0000000424270B504460D460026B448006858
:1008D00000F00700A8420ED2B148006820F00700DF
:1008E0002843AF4908600846006800F00700A842A6
:1008F00001D0012070BD207800F00200022807D14D
:10090000A848406820F0F000A1680843A549486065
:10091000207800F0010000287CD0606801283BD1DD
:100920002020010391FAA1F1B1FA81F108430121DC
:10093000B1EB601F02D19B4800681DE0202001033D
:1009400091FAA1F1B1FA81F108430221B1EB601FE4
:1009500002D19448006A0FE02020010391FAA1F12E
:10096000B1FA81F108430421B1EB601F02D18D4837
:10097000406801E08B48406A20210A0392FAA2F203
:10098000B2FA82F2114301F01F02012191400840A6
:1009900000287CD10120ADE7606802283BD12020EF
:1009A000010591FAA1F1B1FA81F108430121B1EBFE
:1009B000601F02D17B4800681DE02020010591FAEC
:1009C000A1F1B1FA81F108430221B1EB601F02D11C
:1009D0007448006A0FE02020010591FAA1F1B1FAF4
:1009E00081F108430421B1EB601F02D16D484068DA
:1009F00001E06C48406A20210A0592FAA2F2B2FA9C
:100A000082F2114301F01F02012191400840E8BB2E
:100A100001206FE77EE02020022191FAA1F1B1FAD6
:100A200081F108430121B1EB601F02D15D480068EC
:100A30001DE02020022191FAA1F1B1FA81F10843D1
:100A40000221B1EB601F02D15648006A0FE020205E
:100A5000022191FAA1F1B1FA81F108430421B1EB2D
:100A6000601F02D14F48406801E04E48406A202193
:100A7000022292FAA2F2B2FA82F2114301F01F02AC
:100A800001219140084008B9012033E7FFE74548BC
:100A9000406820F003006168084342494860FFF75E
:100AA0001BFD06466068012810D108E0FFF714FD21
:100AB000801B41F28831884201D903201AE7394866
:100AC000406800F00C000428F0D123E060680228A0
:100AD00010D108E0FFF700FD801B41F28831884209
:100AE00001D9032006E72F48406800F00C000828D1
:100AF000F0D10FE008E0FFF7EFFC801B41F28831F6
:100B0000884201D90320F5E62648406800F00C0031
:100B10000028F0D12248006800F00700A8420ED952
:100B20001F48006820F0070028431D490860084658
:100B3000006800F00700A84201D00120DAE6207822
:100B400000F00400042807D11648406820F4E06053
:100B5000E168084313494860207800F0080008283D
:100B600008D11048406820F46050216940EAC10073
:100B70000C49486000F022F80A49496801F0F00188
:100B8000F02292FAA2F2B2FA82F2D140064A515C05
:100B9000C840064908600020FFF7B8FC0020A9E61D
:100BA00000200240001002400C1B00081C00002026
:100BB00001480068704700001C00002070B500214B
:100BC00000240022002300201A4D696801F00C0562
:100BD00065B3042D02D0082D27D101E0164827E087
:100BE00001F470154FF4701696FAA6F6B6FA86F66A
:100BF000F540124E735D0F4DED6A05F00F050F269F
:100C000096FAA6F6B6FA86F6F5400D4E745D01F436
:100C100080352DB1084DB5FBF4F505FB03F202E07C
:100C2000084D03FB05F2104602E000BF024800BF7A
:100C300000BF70BD0010024000127A00241B0008A3
:100C4000341B000800093D00F8B504460025207853
:100C500000F0010000287BD0FA48406800F00C004A
:100C600004280CD0F748406800F00C00082845D153
:100C7000F448406800F48030B0F5803F3ED1202039
:100C8000010391FAA1F1B1FA81F108430121B1EB1D
:100C9000601F02D1EB4800681DE02020010391FA9B
:100CA000A1F1B1FA81F108430221B1EB601F02D139
:100CB000E448006A0FE02020010391FAA1F1B1FAA3
:100CC00081F108430421B1EB601F02D1DD48406887
:100CD00001E0DC48406A20210A0392FAA2F2B2FA4B
:100CE00082F2114301F01F020121914008400028C7
:100CF000B1D0606800282BD10120F8BD00BF60682A
:100D0000B0F5803F06D1CF48006840F48030CD492F
:100D1000086029E0606858B9CA48006820F480304B
:100D2000C84908600846006820F4802008601BE07D
:100D30006068B0F5A02F0CD1C248006840F4802054
:100D4000C04908600846006840F4803008600BE045
:100D5000A1E0BC48006820F48030BA490860084629
:100D6000006820F48020086000BFB648C06A20F008
:100D70000F00A1680843B349C8626068A0B3FFF7D9
:100D8000ABFB054606E0FFF7A7FB401B642801D933
:100D90000320B2E72020010391FAA1F1B1FA81F119
:100DA00008430121B1EB601F02D1A64800681EE094
:100DB0002020010391FAA1F1B1FA81F10843022147
:100DC000B1EB601F02D19F48006A10E020200103B0
:100DD00091FAA1F1B1FA81F108430421B1EB601F4E
:100DE00003D19848406802E010E09648406A20210C
:100DF0000A0392FAA2F2B2FA82F2114301F01F0240
:100E00000121914008400028BDD044E0FFF764FB79
:100E1000054606E0FFF760FB401B642801D903206C
:100E20006BE72020010391FAA1F1B1FA81F10843A7
:100E30000121B1EB601F02D1824800681DE0202033
:100E4000010391FAA1F1B1FA81F108430221B1EB5A
:100E5000601F02D17B48006A0FE02020010391FA55
:100E6000A1F1B1FA81F108430421B1EB601F02D175
:100E70007448406801E07348406A20210A0392FAEE
:100E8000A2F2B2FA82F2114301F01F020121914055
:100E900008400028BED1207800F0020002285CD172
:100EA0006848406800F00C0050B16648406800F0A7
:100EB0000C00082852D16348406800F48030E8BB39
:100EC0002020022191FAA1F1B1FA81F10843012118
:100ED000B1EB601F02D15B4800681DE020200221B9
:100EE00091FAA1F1B1FA81F108430221B1EB601F3F
:100EF00002D15448006A0FE02020022191FAA1F1AA
:100F0000B1FA81F108430421B1EB601F02D14D48D1
:100F1000406801E04B48406A2021022292FAA2F286
:100F2000B2FA82F2114301F01F0201219140084000
:100F300028B12069012802D00120DEE60EE04148F8
:100F4000006820F0F800F82292FAA2F2B2FA82F2D7
:100F50006169914008433B490860B1E0206970B382
:100F6000012191FAA1F0B0FA80F0374A42F820103E
:100F7000FFF7B2FA054606E0FFF7AEFA401B02287B
:100F800001D90320B9E62020022191FAA1F1B1FA9A
:100F900081F108430121B1EB601F02D129480068AB
:100FA0001EE02020022191FAA1F1B1FA81F108435B
:100FB0000221B1EB601F03D12248006A10E02CE04F
:100FC0002020022191FAA1F1B1FA81F10843042114
:100FD000B1EB601F02D11B48406801E01948406A2C
:100FE0002021022292FAA2F2B2FA82F2114301F017
:100FF0001F020121914008400028BDD0114800681F
:1010000020F0F800F82292FAA2F2B2FA82F26169B4
:10101000914008430B49086052E00020012191FAF9
:10102000A1F1B1FA81F1084A42F82100FFF754FA20
:1010300005460BE0FFF750FA401B022806D90320B3
:101040005BE6000000100240000042422020022126
:1010500091FAA1F1B1FA81F108430121B1EB601FCE
:1010600002D1FB4800681DE02020022191FAA1F185
:10107000B1FA81F108430221B1EB601F02D1F448BB
:10108000006A0FE02020022191FAA1F1B1FA81F16A
:1010900008430421B1EB601F02D1ED48406801E034
:1010A000EB48406A2021022292FAA2F2B2FA82F2BE
:1010B000114301F01F020121914008400028B9D1DD
:1010C000207800F00800082851D1A06980B30120E1
:1010D00090FAA0F1B1FA81F1DE4A02EB8101C1F888
:1010E0008004FFF7F9F9054606E0FFF7F5F9401B24
:1010F000022801D9032000E66020022191FAA1F123
:10110000B1FA81F108430121B1EB601F02D1D0484F
:1011100000681EE06020022191FAA1F1B1FA81F18C
:1011200008430221B1EB601F03D1C948006A10E0F7
:101130001EE06020022191FAA1F1B1FA81F1084389
:101140000421B1EB601F02D1C148406801E0C048F2
:10115000406A6021022292FAA2F2B2FA82F21143AC
:1011600001F01F020121914008400028BDD04FE04E
:101170000020012191FAA1F1B1FA81F1B54A02EB07
:101180008101C1F88004FFF7A7F9054606E0FFF7E3
:10119000A3F9401B022801D90320AEE560200221FB
:1011A00091FAA1F1B1FA81F108430121B1EB601F7D
:1011B00002D1A74800681DE06020022191FAA1F148
:1011C000B1FA81F108430221B1EB601F02D1A048BE
:1011D000006A0FE06020022191FAA1F1B1FA81F1D9
:1011E00008430421B1EB601F02D19948406801E037
:1011F0009748406A6021022292FAA2F2B2FA82F281
:10120000114301F01F020121914008400028BED186
:10121000207800F00400042873D100268C48C069AF
:1012200000F0805070B900BF8948C06940F080501C
:101230008749C8610846C06900F08050009000BF2F
:1012400000BF01268448006800F48070B0B982486D
:10125000006840F4807080490860FFF73DF905465A
:1012600006E0FFF739F9401B642801D9032044E563
:101270007948006800F480700028F2D000BFE06870
:10128000012806D17248006A40F0010070490862E6
:1012900027E0E06858B96E48006A20F001006C4908
:1012A00008620846006A20F00400086219E0E0685D
:1012B00005280BD16648006A40F0040064490862C2
:1012C0000846006A40F0010008620AE06048006ACF
:1012D00020F001005E4908620846006A20F0040020
:1012E000086200BFE068B8B3FFF7F6F8054609E00A
:1012F000FFF7F2F8401B41F28831884202D90320FF
:10130000FBE48BE04020022191FAA1F1B1FA81F1D6
:1013100008430121B1EB601F02D14D4800681EE077
:101320004020022191FAA1F1B1FA81F10843022192
:10133000B1EB601F02D14648006A10E04020022154
:1013400091FAA1F1B1FA81F108430421B1EB601FD8
:1013500003D13F48406802E010E03D48406A402128
:10136000022292FAA2F2B2FA82F2114301F01F02B3
:101370000121914008400028BAD046E0FFF7ACF8C0
:10138000054608E0FFF7A8F8401B41F28831884283
:1013900001D90320B1E44020022191FAA1F1B1FA70
:1013A00081F108430121B1EB601F02D12848006898
:1013B0001DE04020022191FAA1F1B1FA81F1084328
:1013C0000221B1EB601F02D12148006A0FE04020EA
:1013D000022191FAA1F1B1FA81F108430421B1EBA4
:1013E000601F02D11A48406801E01948406A402154
:1013F000022292FAA2F2B2FA82F2114301F01F0223
:101400000121914008400028BCD1012E05D110488F
:10141000C06920F080500E49C86100BFE069002813
:1014200074D00B48406800F00C0008286FD0E069C9
:1014300002286DD100204FF0807191FAA1F1B1FA2C
:1014400081F1044A42F82100FFF746F805460CE016
:10145000001002400000424200700040FFF73CF8DC
:10146000401B022801D9032047E42020010591FAFE
:10147000A1F1B1FA81F108430121B1EB601F02D162
:101480006F4800681DE02020010591FAA1F1B1FA32
:1014900081F108430221B1EB601F02D16848006A64
:1014A0000FE02020010591FAA1F1B1FA81F1084382
:1014B0000421B1EB601F02D16148406801E060483F
:1014C000406A20210A0592FAA2F2B2FA82F211438E
:1014D00001F01F020121914008400028BED1D4E94B
:1014E000081008435649496821F4741108435449C7
:1014F00048600121080690FAA0F0B0FA80F0514A45
:1015000042F82010FEF7E8FF054609E095E092E07A
:1015100041E0FEF7E1FF401B022801D9032038E437
:101520002020010591FAA1F1B1FA81F108430121CE
:10153000B1EB601F02D1424800681DE02020010588
:1015400091FAA1F1B1FA81F108430221B1EB601FD8
:1015500002D13B48006A0FE02020010591FAA1F179
:10156000B1FA81F108430421B1EB601F02D1344884
:10157000406801E03248406A20210A0592FAA2F24E
:10158000B2FA82F2114301F01F020121914008409A
:101590000028BED051E000214FF0807090FAA0F0FA
:1015A000B0FA80F0274A42F82010FEF795FF054672
:1015B00006E0FEF791FF401B022801D903202FE42B
:1015C0002020010591FAA1F1B1FA81F1084301212E
:1015D000B1EB601F02D11A4800681DE02020010510
:1015E00091FAA1F1B1FA81F108430221B1EB601F38
:1015F00002D11348006A0FE02020010591FAA1F101
:10160000B1FA81F108430421B1EB601F02D10C480B
:10161000406801E00A48406A20210A0592FAA2F2D5
:10162000B2FA82F2114301F01F02012191400840F9
:101630000028BED101E001207FE400207DE400000D
:101640000010024000004242042808D14FF0E0217F
:10165000096941F004014FF0E022116107E04FF009
:10166000E021096921F004014FF0E0221161704787
:1016700070B504462546681EB0F1807F01D3012075
:101680000FE0681E4FF0E02148610F214FF0FF305E
:1016900000F016F800204FF0E02188610720086173
:1016A000002070BD00BFFEE700BFFEE770470000EE
:1016B00002480068C0F30220704700000CED00E013
:1016C00010B5002807DA0A07140E054A00F00F03C8
:1016D0001B1FD45403E00A07130E024A135410BD13
:1016E00018ED00E000E400E030B503460C46154676
:1016F000002207E0184600F008F824F812009B1CAE
:10170000501C82B2AA42F5DB30BD01460888704702
:101710002DE9F05F80468A461746B8F1006F02D384
:101720003748804501D3BDE8F09FA8F1006B4FEA30
:10173000DB26CBF34909C9F58064A74200DC3C46AF
:10174000FEF7B4FE55E04FF0006101EBC6204A14ED
:101750002C49FFF7C9FF00250BE009EB05002949DB
:1017600031F810004FF6FF71884200D003E0681C8A
:1017700085B2A542F1DB00BFA54223DA0020224951
:1017800008604FF0006000EBC620486001208860D0
:101790001E491D48FEF7D0FD002508E03AF8150067
:1017A00005EB0901174A22F81100681C85B2A54211
:1017B000F4DB4FF0006101EBC6204A14114900F040
:1017C00027F804E022465146404600F021F8A7429F
:1017D00000D10FE0761C4FF000090AEB440AA04448
:1017E000381B87B2B7F5806F02DD4FF4806400E0EC
:1017F0003C46A8E700BFFEF7F7FD00BF93E70000F7
:10180000000004087C0A0020300A0020100000209C
:101810002DE9F04104460E46174600250AE036F849
:1018200015C06246002321460120FEF7E7FDA41CF7
:10183000681C85B2BD42F2DBBDE8F0817047000054
:1018400010B59EB00A20149001201890082019901D
:1018500001201A9002201B9000211C914FF460116E
:101860001D9114A8FFF7F0F908B1FEF7D5FC0F2081
:101870000F9002201090002011904FF48060129081
:101880000020139002210FA8FFF71CF808B1FEF703
:10189000C3FC114800900020029004904FF4807027
:1018A0000990400001906846FEF798FE08B1FEF7E7
:1018B000B3FCFFF77DF94FF47A71B0FBF1F42046E9
:1018C000FFF7D6FE0420FFF7BFFE00220F21501EB7
:1018D000FEF731FE1EB010BD8500010019480068FA
:1018E00040F47000174908601748006840F0010094
:1018F0001549086008464068144908401249486084
:1019000008460068124908400F4908600846006808
:1019100020F4802008600846406820F4FE004860FB
:101920000846C06A20F00F00C8620846006B0949EB
:1019300008400549086300208860C80301498039D0
:101940000860704788ED00E0001002400CC07FF88E
:10195000FFFFF6FECCFC00FF704700BFFEE7000073
:10196000014A024900F013B8B11900082400002010
:1019700002E008C8121F08C1002AFAD17047704758
:10198000002001E001C1121F002AFBD170472DE9A0
:10199000F04116460F460446002503E03946B0479D
:1019A000641C6D1C20780028F8D12846BDE8F08121
:1019B00038B504468DF8000069460320ABBE2046CA
:1019C00038BD000010B50446206807490840B0F152
:1019D000005F08D16068054908602068FEF7DEFBFB
:1019E00002480068804710BD0000FE2F0000002064
:1019F0002DE9F04707460E4615460024B946A04695
:101A000015E04FF4806218493046FFF76DFE4FF441
:101A1000806215494846FFF77BFE09F5006906F527
:101A20000066601C84B208F500601FFA80F8A845C3
:101A3000E7DBA5EBC420002813DDA5EBC42A0AEBE5
:101A4000DA70C0F34F0208493046FFF74DFEA5EBB0
:101A5000C42A0AEBDA70C0F34F0203494846FFF785
:101A600057FEBDE8F08700002800002010B52024B4
:101A7000224602490248FFF737FE10BD3C0A00200B
:101A800000F00308FEF72EFDFFF7DAFEFFF7EEFF8A
:101A90001DE00F480078AA2805D10D48428841680A
:101AA0000C48FFF7A5FF0B48001D006800F07F40C1
:101AB000B0F1006F08D155200549087000F01AF800
:101AC0000448FFF77FFF02E003A0FFF749FFE0E7CC
:101AD0003C0A0020002800086E6F742061207661A7
:101AE0006C696420666C61736820617070210D0AF6
:101AF0000000000010B5202202490348FFF708FE4D
:101B000010BD00003C0A002000F0030800000000A7
:101B1000000000000102030406070809000000009D
:101B20000102030402030405060708090A0B0C0D51
:101B30000E0F10100102030405060708090A0B0C1A
:101B40000D0E0F10641B000800000020280000008C
:101B5000701900088C1B000828000020781600006F
:101B600080190008000000000028000800000000A4
:101B70000000000000000000000000000000000065
:0C1B800000127A000000000000000000CD
:040000050800018965
:00000001FF
